{"contracts/Verifier.sol":{"Groth16Verifier":{"abi":[{"inputs":[{"internalType":"uint256[2]","name":"_pA","type":"uint256[2]"},{"internalType":"uint256[2][2]","name":"_pB","type":"uint256[2][2]"},{"internalType":"uint256[2]","name":"_pC","type":"uint256[2]"},{"internalType":"uint256[6]","name":"_pubSignals","type":"uint256[6]"}],"name":"verifyProof","outputs":[{"internalType":"bool","name":"","type":"bool"}],"stateMutability":"view","type":"function"}],"evm":{"bytecode":{"linkReferences":{},"object":"6080604052348015600f57600080fd5b506107d18061001f6000396000f3fe608060405234801561001057600080fd5b506004361061002b5760003560e01c8063f398789b14610030575b600080fd5b61004a600480360381019061004591906106fc565b610060565b6040516100579190610780565b60405180910390f35b600061061c565b7f30644e72e131a029b85045b68181585d2833e84879b9709143e1f593f00000018110610098576000805260206000f35b50565b600060405183815284602082015285604082015260408160608360076107d05a03fa9150816100ce576000805260206000f35b825160408201526020830151606082015260408360808360066107d05a03fa9150816100fe576000805260206000f35b505050505050565b600060808601600087017f010ac0879f460768530a78499741756889563c43e2dc3afeb9c4ca8143d2472581527f07e17c158b10cb1944f4c811a412ab91e1f756715885769325886f3ba747b36060208201526101a960008801357f017bc221dd9d9934d315ec2c47b18b1b1e7fc42e4d3943e6561c6cdeab9b87e97f2f21ac3a2b89801d254264e77b7f27dea278ffec01587921a9f99cddbef680408461009b565b6101f960208801357f06e58f62c94537cd4f983bc3a306348ead7763b83cb742ef7219877733489d4d7f0b43a990584c18c876d69fadec57f09d7e143ce0a2f265ec076dd247cc05f1ed8461009b565b61024960408801357f0c53a9b11178bada176077af49a7e38c5859733c5215db0dca41090ebd082b7f7f0554da4ba7f9776e0df7e50fe7bf711971071b2217800b6652abd481079015c48461009b565b61029960608801357f2e002e8272b07d2acaf39056f8190b4ee52cdb890d08585d719cb216851a5c2d7f2a3be893d615f9dcc0bba35492696a2f70c0a0bd1fd996b2e8fd58b815f3ce6a8461009b565b6102e960808801357f073ea49c7523c089d9c0380a99fd707be378161f228a0492bf08d83fd140adf07f1643bcee9c072a11d653641fdfc007b5c191e51d510096ba23170968e951b6e78461009b565b61033960a08801357f22b01b586a03f239df1eb44df38fcd125d358c7e5353ab47a1d2974549859d637f2c15c4ebf40f18a385f786b16b988f173445ebc52ce73a777196a963f3036d4e8461009b565b833582527f30644e72e131a029b85045b68181585d97816a916871ca8d3c208c16d87cfd4760208501357f30644e72e131a029b85045b68181585d97816a916871ca8d3c208c16d87cfd4703066020830152843560408301526020850135606083015260408501356080830152606085013560a08301527f0b14bc01f34aa67f32505334697a143293e2a70a7331673ac94f7923d1fdaf1f60c08301527f25803befc613cfab10e24e798a53217728d700e792f34172dd5d0d891f0156c360e08301527f244bc00edba2d0e3c337998163ad332119d1e2e5aa6e7996ebb9b85f4070e3c16101008301527f2b50111d43d8fd69487975e4c001a7b252c1aa885daace248a1951b6034877b26101208301527f1ada24c61af370ae5179bbeccfb81925047601b6f69d2394ca3bbd20302b68106101408301527e2216099c12f36762c998e454ee2e90430c86efc60c70f0405f4a25707f073f610160830152600088015161018083015260206000018801516101a08301527f198e9393920d483a7260bfb731fb5d25f1aa493335a9e71297e485b7aef312c26101c08301527f1800deef121f1e76426a00665e5c4479674322d4f75edadd46debd5cd992f6ed6101e08301527f090689d0585ff075ec9e99ad690c3395bc4b313370b38ef355acdadcd122975b6102008301527f12c85ea5db8c6deb4aab71808dcb408fe3d1e7690c43d37b4ce6cc0166fa7daa610220830152853561024083015260208601356102608301527f1bdb443ce61ebcf93daed4215a57e1cec90ca64973023e31197a112e8cee72f66102808301527f117e26c4235f42625b3404f2973059814ff260dba7176d7aae910f493a8e1fb56102a08301527f196e247a12f580e36894f256f0c122393489b4c213b3e913250feee806ca45ff6102c08301527f2fedff4e4bbcbf9f1c56e28a060d50eef5f54e2aab897f6b465acd2ed005ae916102e08301526020826103008460086107d05a03fa82518116935050505095945050505050565b60405161038081016040526106346000840135610067565b6106416020840135610067565b61064e6040840135610067565b61065b6060840135610067565b6106686080840135610067565b61067560a0840135610067565b610682818486888a610106565b8060005260206000f35b600080fd5b600080fd5b6000819050826020600202820111156106b2576106b1610691565b5b92915050565b6000819050826040600202820111156106d4576106d3610691565b5b92915050565b6000819050826020600602820111156106f6576106f5610691565b5b92915050565b6000806000806101c085870312156107175761071661068c565b5b600061072587828801610696565b9450506040610736878288016106b8565b93505060c061074787828801610696565b925050610100610759878288016106da565b91505092959194509250565b60008115159050919050565b61077a81610765565b82525050565b60006020820190506107956000830184610771565b9291505056fea2646970667358221220827be42ce5fbc0b87d4da4a2085ca05b643e71c54779a0a8f6910ae99a22150864736f6c634300081c0033","opcodes":"PUSH1 0x80 PUSH1 0x40 MSTORE CALLVALUE DUP1 ISZERO PUSH1 0xF JUMPI PUSH1 0x0 DUP1 REVERT JUMPDEST POP PUSH2 0x7D1 DUP1 PUSH2 0x1F PUSH1 0x0 CODECOPY PUSH1 0x0 RETURN INVALID PUSH1 0x80 PUSH1 0x40 MSTORE CALLVALUE DUP1 ISZERO PUSH2 0x10 JUMPI PUSH1 0x0 DUP1 REVERT JUMPDEST POP PUSH1 0x4 CALLDATASIZE LT PUSH2 0x2B JUMPI PUSH1 0x0 CALLDATALOAD PUSH1 0xE0 SHR DUP1 PUSH4 0xF398789B EQ PUSH2 0x30 JUMPI JUMPDEST PUSH1 0x0 DUP1 REVERT JUMPDEST PUSH2 0x4A PUSH1 0x4 DUP1 CALLDATASIZE SUB DUP2 ADD SWAP1 PUSH2 0x45 SWAP2 SWAP1 PUSH2 0x6FC JUMP JUMPDEST PUSH2 0x60 JUMP JUMPDEST PUSH1 0x40 MLOAD PUSH2 0x57 SWAP2 SWAP1 PUSH2 0x780 JUMP JUMPDEST PUSH1 0x40 MLOAD DUP1 SWAP2 SUB SWAP1 RETURN JUMPDEST PUSH1 0x0 PUSH2 0x61C JUMP JUMPDEST PUSH32 0x30644E72E131A029B85045B68181585D2833E84879B9709143E1F593F0000001 DUP2 LT PUSH2 0x98 JUMPI PUSH1 0x0 DUP1 MSTORE PUSH1 0x20 PUSH1 0x0 RETURN JUMPDEST POP JUMP JUMPDEST PUSH1 0x0 PUSH1 0x40 MLOAD DUP4 DUP2 MSTORE DUP5 PUSH1 0x20 DUP3 ADD MSTORE DUP6 PUSH1 0x40 DUP3 ADD MSTORE PUSH1 0x40 DUP2 PUSH1 0x60 DUP4 PUSH1 0x7 PUSH2 0x7D0 GAS SUB STATICCALL SWAP2 POP DUP2 PUSH2 0xCE JUMPI PUSH1 0x0 DUP1 MSTORE PUSH1 0x20 PUSH1 0x0 RETURN JUMPDEST DUP3 MLOAD PUSH1 0x40 DUP3 ADD MSTORE PUSH1 0x20 DUP4 ADD MLOAD PUSH1 0x60 DUP3 ADD MSTORE PUSH1 0x40 DUP4 PUSH1 0x80 DUP4 PUSH1 0x6 PUSH2 0x7D0 GAS SUB STATICCALL SWAP2 POP DUP2 PUSH2 0xFE JUMPI PUSH1 0x0 DUP1 MSTORE PUSH1 0x20 PUSH1 0x0 RETURN JUMPDEST POP POP POP POP POP POP JUMP JUMPDEST PUSH1 0x0 PUSH1 0x80 DUP7 ADD PUSH1 0x0 DUP8 ADD PUSH32 0x10AC0879F460768530A78499741756889563C43E2DC3AFEB9C4CA8143D24725 DUP2 MSTORE PUSH32 0x7E17C158B10CB1944F4C811A412AB91E1F756715885769325886F3BA747B360 PUSH1 0x20 DUP3 ADD MSTORE PUSH2 0x1A9 PUSH1 0x0 DUP9 ADD CALLDATALOAD PUSH32 0x17BC221DD9D9934D315EC2C47B18B1B1E7FC42E4D3943E6561C6CDEAB9B87E9 PUSH32 0x2F21AC3A2B89801D254264E77B7F27DEA278FFEC01587921A9F99CDDBEF68040 DUP5 PUSH2 0x9B JUMP JUMPDEST PUSH2 0x1F9 PUSH1 0x20 DUP9 ADD CALLDATALOAD PUSH32 0x6E58F62C94537CD4F983BC3A306348EAD7763B83CB742EF7219877733489D4D PUSH32 0xB43A990584C18C876D69FADEC57F09D7E143CE0A2F265EC076DD247CC05F1ED DUP5 PUSH2 0x9B JUMP JUMPDEST PUSH2 0x249 PUSH1 0x40 DUP9 ADD CALLDATALOAD PUSH32 0xC53A9B11178BADA176077AF49A7E38C5859733C5215DB0DCA41090EBD082B7F PUSH32 0x554DA4BA7F9776E0DF7E50FE7BF711971071B2217800B6652ABD481079015C4 DUP5 PUSH2 0x9B JUMP JUMPDEST PUSH2 0x299 PUSH1 0x60 DUP9 ADD CALLDATALOAD PUSH32 0x2E002E8272B07D2ACAF39056F8190B4EE52CDB890D08585D719CB216851A5C2D PUSH32 0x2A3BE893D615F9DCC0BBA35492696A2F70C0A0BD1FD996B2E8FD58B815F3CE6A DUP5 PUSH2 0x9B JUMP JUMPDEST PUSH2 0x2E9 PUSH1 0x80 DUP9 ADD CALLDATALOAD PUSH32 0x73EA49C7523C089D9C0380A99FD707BE378161F228A0492BF08D83FD140ADF0 PUSH32 0x1643BCEE9C072A11D653641FDFC007B5C191E51D510096BA23170968E951B6E7 DUP5 PUSH2 0x9B JUMP JUMPDEST PUSH2 0x339 PUSH1 0xA0 DUP9 ADD CALLDATALOAD PUSH32 0x22B01B586A03F239DF1EB44DF38FCD125D358C7E5353AB47A1D2974549859D63 PUSH32 0x2C15C4EBF40F18A385F786B16B988F173445EBC52CE73A777196A963F3036D4E DUP5 PUSH2 0x9B JUMP JUMPDEST DUP4 CALLDATALOAD DUP3 MSTORE PUSH32 0x30644E72E131A029B85045B68181585D97816A916871CA8D3C208C16D87CFD47 PUSH1 0x20 DUP6 ADD CALLDATALOAD PUSH32 0x30644E72E131A029B85045B68181585D97816A916871CA8D3C208C16D87CFD47 SUB MOD PUSH1 0x20 DUP4 ADD MSTORE DUP5 CALLDATALOAD PUSH1 0x40 DUP4 ADD MSTORE PUSH1 0x20 DUP6 ADD CALLDATALOAD PUSH1 0x60 DUP4 ADD MSTORE PUSH1 0x40 DUP6 ADD CALLDATALOAD PUSH1 0x80 DUP4 ADD MSTORE PUSH1 0x60 DUP6 ADD CALLDATALOAD PUSH1 0xA0 DUP4 ADD MSTORE PUSH32 0xB14BC01F34AA67F32505334697A143293E2A70A7331673AC94F7923D1FDAF1F PUSH1 0xC0 DUP4 ADD MSTORE PUSH32 0x25803BEFC613CFAB10E24E798A53217728D700E792F34172DD5D0D891F0156C3 PUSH1 0xE0 DUP4 ADD MSTORE PUSH32 0x244BC00EDBA2D0E3C337998163AD332119D1E2E5AA6E7996EBB9B85F4070E3C1 PUSH2 0x100 DUP4 ADD MSTORE PUSH32 0x2B50111D43D8FD69487975E4C001A7B252C1AA885DAACE248A1951B6034877B2 PUSH2 0x120 DUP4 ADD MSTORE PUSH32 0x1ADA24C61AF370AE5179BBECCFB81925047601B6F69D2394CA3BBD20302B6810 PUSH2 0x140 DUP4 ADD MSTORE PUSH31 0x2216099C12F36762C998E454EE2E90430C86EFC60C70F0405F4A25707F073F PUSH2 0x160 DUP4 ADD MSTORE PUSH1 0x0 DUP9 ADD MLOAD PUSH2 0x180 DUP4 ADD MSTORE PUSH1 0x20 PUSH1 0x0 ADD DUP9 ADD MLOAD PUSH2 0x1A0 DUP4 ADD MSTORE PUSH32 0x198E9393920D483A7260BFB731FB5D25F1AA493335A9E71297E485B7AEF312C2 PUSH2 0x1C0 DUP4 ADD MSTORE PUSH32 0x1800DEEF121F1E76426A00665E5C4479674322D4F75EDADD46DEBD5CD992F6ED PUSH2 0x1E0 DUP4 ADD MSTORE PUSH32 0x90689D0585FF075EC9E99AD690C3395BC4B313370B38EF355ACDADCD122975B PUSH2 0x200 DUP4 ADD MSTORE PUSH32 0x12C85EA5DB8C6DEB4AAB71808DCB408FE3D1E7690C43D37B4CE6CC0166FA7DAA PUSH2 0x220 DUP4 ADD MSTORE DUP6 CALLDATALOAD PUSH2 0x240 DUP4 ADD MSTORE PUSH1 0x20 DUP7 ADD CALLDATALOAD PUSH2 0x260 DUP4 ADD MSTORE PUSH32 0x1BDB443CE61EBCF93DAED4215A57E1CEC90CA64973023E31197A112E8CEE72F6 PUSH2 0x280 DUP4 ADD MSTORE PUSH32 0x117E26C4235F42625B3404F2973059814FF260DBA7176D7AAE910F493A8E1FB5 PUSH2 0x2A0 DUP4 ADD MSTORE PUSH32 0x196E247A12F580E36894F256F0C122393489B4C213B3E913250FEEE806CA45FF PUSH2 0x2C0 DUP4 ADD MSTORE PUSH32 0x2FEDFF4E4BBCBF9F1C56E28A060D50EEF5F54E2AAB897F6B465ACD2ED005AE91 PUSH2 0x2E0 DUP4 ADD MSTORE PUSH1 0x20 DUP3 PUSH2 0x300 DUP5 PUSH1 0x8 PUSH2 0x7D0 GAS SUB STATICCALL DUP3 MLOAD DUP2 AND SWAP4 POP POP POP POP SWAP6 SWAP5 POP POP POP POP POP JUMP JUMPDEST PUSH1 0x40 MLOAD PUSH2 0x380 DUP2 ADD PUSH1 0x40 MSTORE PUSH2 0x634 PUSH1 0x0 DUP5 ADD CALLDATALOAD PUSH2 0x67 JUMP JUMPDEST PUSH2 0x641 PUSH1 0x20 DUP5 ADD CALLDATALOAD PUSH2 0x67 JUMP JUMPDEST PUSH2 0x64E PUSH1 0x40 DUP5 ADD CALLDATALOAD PUSH2 0x67 JUMP JUMPDEST PUSH2 0x65B PUSH1 0x60 DUP5 ADD CALLDATALOAD PUSH2 0x67 JUMP JUMPDEST PUSH2 0x668 PUSH1 0x80 DUP5 ADD CALLDATALOAD PUSH2 0x67 JUMP JUMPDEST PUSH2 0x675 PUSH1 0xA0 DUP5 ADD CALLDATALOAD PUSH2 0x67 JUMP JUMPDEST PUSH2 0x682 DUP2 DUP5 DUP7 DUP9 DUP11 PUSH2 0x106 JUMP JUMPDEST DUP1 PUSH1 0x0 MSTORE PUSH1 0x20 PUSH1 0x0 RETURN JUMPDEST PUSH1 0x0 DUP1 REVERT JUMPDEST PUSH1 0x0 DUP1 REVERT JUMPDEST PUSH1 0x0 DUP2 SWAP1 POP DUP3 PUSH1 0x20 PUSH1 0x2 MUL DUP3 ADD GT ISZERO PUSH2 0x6B2 JUMPI PUSH2 0x6B1 PUSH2 0x691 JUMP JUMPDEST JUMPDEST SWAP3 SWAP2 POP POP JUMP JUMPDEST PUSH1 0x0 DUP2 SWAP1 POP DUP3 PUSH1 0x40 PUSH1 0x2 MUL DUP3 ADD GT ISZERO PUSH2 0x6D4 JUMPI PUSH2 0x6D3 PUSH2 0x691 JUMP JUMPDEST JUMPDEST SWAP3 SWAP2 POP POP JUMP JUMPDEST PUSH1 0x0 DUP2 SWAP1 POP DUP3 PUSH1 0x20 PUSH1 0x6 MUL DUP3 ADD GT ISZERO PUSH2 0x6F6 JUMPI PUSH2 0x6F5 PUSH2 0x691 JUMP JUMPDEST JUMPDEST SWAP3 SWAP2 POP POP JUMP JUMPDEST PUSH1 0x0 DUP1 PUSH1 0x0 DUP1 PUSH2 0x1C0 DUP6 DUP8 SUB SLT ISZERO PUSH2 0x717 JUMPI PUSH2 0x716 PUSH2 0x68C JUMP JUMPDEST JUMPDEST PUSH1 0x0 PUSH2 0x725 DUP8 DUP3 DUP9 ADD PUSH2 0x696 JUMP JUMPDEST SWAP5 POP POP PUSH1 0x40 PUSH2 0x736 DUP8 DUP3 DUP9 ADD PUSH2 0x6B8 JUMP JUMPDEST SWAP4 POP POP PUSH1 0xC0 PUSH2 0x747 DUP8 DUP3 DUP9 ADD PUSH2 0x696 JUMP JUMPDEST SWAP3 POP POP PUSH2 0x100 PUSH2 0x759 DUP8 DUP3 DUP9 ADD PUSH2 0x6DA JUMP JUMPDEST SWAP2 POP POP SWAP3 SWAP6 SWAP2 SWAP5 POP SWAP3 POP JUMP JUMPDEST PUSH1 0x0 DUP2 ISZERO ISZERO SWAP1 POP SWAP2 SWAP1 POP JUMP JUMPDEST PUSH2 0x77A DUP2 PUSH2 0x765 JUMP JUMPDEST DUP3 MSTORE POP POP JUMP JUMPDEST PUSH1 0x0 PUSH1 0x20 DUP3 ADD SWAP1 POP PUSH2 0x795 PUSH1 0x0 DUP4 ADD DUP5 PUSH2 0x771 JUMP JUMPDEST SWAP3 SWAP2 POP POP JUMP INVALID LOG2 PUSH5 0x6970667358 0x22 SLT KECCAK256 DUP3 PUSH28 0xE42CE5FBC0B87D4DA4A2085CA05B643E71C54779A0A8F6910AE99A22 ISZERO ADDMOD PUSH5 0x736F6C6343 STOP ADDMOD SHR STOP CALLER "},"methodIdentifiers":{"verifyProof(uint256[2],uint256[2][2],uint256[2],uint256[6])":"f398789b"}}}}}