{"contracts/Loan.sol":{"Loan":{"abi":[{"inputs":[],"stateMutability":"nonpayable","type":"constructor"},{"anonymous":false,"inputs":[{"indexed":true,"internalType":"uint256","name":"loanId","type":"uint256"},{"indexed":true,"internalType":"uint256","name":"requestId","type":"uint256"}],"name":"BorrowRequestApproved","type":"event"},{"anonymous":false,"inputs":[{"indexed":true,"internalType":"uint256","name":"requestId","type":"uint256"},{"indexed":true,"internalType":"address","name":"borrower","type":"address"}],"name":"BorrowRequestCreated","type":"event"},{"anonymous":false,"inputs":[{"indexed":true,"internalType":"uint256","name":"loanId","type":"uint256"},{"indexed":true,"internalType":"address","name":"lender","type":"address"}],"name":"LoanCreated","type":"event"},{"anonymous":false,"inputs":[{"indexed":true,"internalType":"uint256","name":"loanId","type":"uint256"},{"indexed":true,"internalType":"uint256","name":"requestId","type":"uint256"}],"name":"LoanRepaid","type":"event"},{"inputs":[{"internalType":"uint256","name":"requestId","type":"uint256"}],"name":"approveBorrowRequest","outputs":[],"stateMutability":"nonpayable","type":"function"},{"inputs":[{"internalType":"uint256","name":"","type":"uint256"}],"name":"approvedBorrowRequests","outputs":[{"internalType":"uint256","name":"loan_id","type":"uint256"},{"internalType":"uint256","name":"borrow_request_id","type":"uint256"},{"internalType":"bool","name":"has_repayed","type":"bool"}],"stateMutability":"view","type":"function"},{"inputs":[],"name":"borrowRequestCounter","outputs":[{"internalType":"uint256","name":"","type":"uint256"}],"stateMutability":"view","type":"function"},{"inputs":[{"internalType":"uint256","name":"","type":"uint256"}],"name":"borrowRequests","outputs":[{"internalType":"uint256","name":"id","type":"uint256"},{"internalType":"address","name":"borrow_address","type":"address"},{"internalType":"uint256","name":"loan_id","type":"uint256"},{"internalType":"string","name":"collateral_token","type":"string"},{"internalType":"uint256","name":"collateral_amount_can_pay","type":"uint256"},{"internalType":"string","name":"deadline_can_repay","type":"string"},{"internalType":"bool","name":"has_passed_threshold","type":"bool"},{"internalType":"bool","name":"isApproved","type":"bool"}],"stateMutability":"view","type":"function"},{"inputs":[{"internalType":"uint256","name":"loan_id","type":"uint256"},{"internalType":"string","name":"collateral_token","type":"string"},{"internalType":"uint256","name":"collateral_amount_can_pay","type":"uint256"},{"internalType":"string","name":"deadline_can_repay","type":"string"},{"internalType":"bool","name":"has_passed_threshold","type":"bool"}],"name":"createBorrowRequest","outputs":[],"stateMutability":"nonpayable","type":"function"},{"inputs":[{"internalType":"uint256","name":"credit_score_threshold","type":"uint256"},{"internalType":"string","name":"lending_token","type":"string"},{"internalType":"uint256","name":"lending_amount","type":"uint256"},{"internalType":"string","name":"collateral_token","type":"string"},{"internalType":"uint256","name":"minimum_collateral_amount","type":"uint256"},{"internalType":"string","name":"deadline_repaying","type":"string"}],"name":"createLoan","outputs":[],"stateMutability":"nonpayable","type":"function"},{"inputs":[],"name":"loanCounter","outputs":[{"internalType":"uint256","name":"","type":"uint256"}],"stateMutability":"view","type":"function"},{"inputs":[{"internalType":"uint256","name":"","type":"uint256"}],"name":"loans","outputs":[{"internalType":"uint256","name":"id","type":"uint256"},{"internalType":"address","name":"lender_address","type":"address"},{"internalType":"uint256","name":"credit_score_threshold","type":"uint256"},{"internalType":"string","name":"lending_token","type":"string"},{"internalType":"uint256","name":"lending_amount","type":"uint256"},{"internalType":"string","name":"collateral_token","type":"string"},{"internalType":"uint256","name":"minimum_collateral_amount","type":"uint256"},{"internalType":"string","name":"deadline_repaying","type":"string"},{"internalType":"bool","name":"is_Active_Loan","type":"bool"}],"stateMutability":"view","type":"function"},{"inputs":[],"name":"owner","outputs":[{"internalType":"address","name":"","type":"address"}],"stateMutability":"view","type":"function"},{"inputs":[{"internalType":"uint256","name":"loan_id","type":"uint256"}],"name":"repayLoan","outputs":[],"stateMutability":"nonpayable","type":"function"},{"inputs":[{"internalType":"uint256[2]","name":"_pA","type":"uint256[2]"},{"internalType":"uint256[2][2]","name":"_pB","type":"uint256[2][2]"},{"internalType":"uint256[2]","name":"_pC","type":"uint256[2]"},{"internalType":"uint256[6]","name":"_pubSignals","type":"uint256[6]"}],"name":"verifyLoanThresholdPassed","outputs":[{"internalType":"bool","name":"","type":"bool"}],"stateMutability":"view","type":"function"},{"inputs":[{"internalType":"uint256[2]","name":"_pA","type":"uint256[2]"},{"internalType":"uint256[2][2]","name":"_pB","type":"uint256[2][2]"},{"internalType":"uint256[2]","name":"_pC","type":"uint256[2]"},{"internalType":"uint256[6]","name":"_pubSignals","type":"uint256[6]"}],"name":"verifyProof","outputs":[{"internalType":"bool","name":"","type":"bool"}],"stateMutability":"view","type":"function"}],"evm":{"bytecode":{"linkReferences":{},"object":"6080604052348015600f57600080fd5b5033600260006101000a81548173ffffffffffffffffffffffffffffffffffffffff021916908373ffffffffffffffffffffffffffffffffffffffff160217905550612003806100606000396000f3fe608060405234801561001057600080fd5b50600436106100b45760003560e01c8063ab7b1c8911610071578063ab7b1c89146101ac578063ba5f1fb4146101c8578063e12003e3146101e4578063e1ec3c6814610200578063e707ff8114610238578063f398789b14610254576100b4565b80631ebde2c5146100b95780632afc153a146100eb57806334d9289e1461010957806350d282fc146101275780638da5cb5b1461015e5780639968c24d1461017c575b600080fd5b6100d360048036038101906100ce91906113b5565b610284565b6040516100e29392919061140c565b60405180910390f35b6100f36102bb565b6040516101009190611443565b60405180910390f35b6101116102c1565b60405161011e9190611443565b60405180910390f35b610141600480360381019061013c91906113b5565b6102c7565b60405161015598979695949392919061152f565b60405180910390f35b610166610459565b60405161017391906115bb565b60405180910390f35b61019660048036038101906101919190611641565b61047f565b6040516101a391906116aa565b60405180910390f35b6101c660048036038101906101c191906113b5565b610497565b005b6101e260048036038101906101dd9190611826565b61059a565b005b6101fe60048036038101906101f991906113b5565b6107a2565b005b61021a600480360381019061021591906113b5565b610983565b60405161022f999897969594939291906118d9565b60405180910390f35b610252600480360381019061024d919061197b565b610b96565b005b61026e60048036038101906102699190611641565b610d3f565b60405161027b91906116aa565b60405180910390f35b60056020528060005260406000206000915090508060000154908060010154908060020160009054906101000a900460ff16905083565b60015481565b60005481565b60046020528060005260406000206000915090508060000154908060010160009054906101000a900473ffffffffffffffffffffffffffffffffffffffff169080600201549080600301805461031c90611a8b565b80601f016020809104026020016040519081016040528092919081815260200182805461034890611a8b565b80156103955780601f1061036a57610100808354040283529160200191610395565b820191906000526020600020905b81548152906001019060200180831161037857829003601f168201915b5050505050908060040154908060050180546103b090611a8b565b80601f01602080910402602001604051908101604052809291908181526020018280546103dc90611a8b565b80156104295780601f106103fe57610100808354040283529160200191610429565b820191906000526020600020905b81548152906001019060200180831161040c57829003601f168201915b5050505050908060060160009054906101000a900460ff16908060060160019054906101000a900460ff16905088565b600260009054906101000a900473ffffffffffffffffffffffffffffffffffffffff1681565b600061048d85858585610d3f565b9050949350505050565b600060056000838152602001908152602001600020905060008160010154036104f5576040517f08c379a00000000000000000000000000000000000000000000000000000000081526004016104ec90611b08565b60405180910390fd5b8060020160009054906101000a900460ff1615610547576040517f08c379a000000000000000000000000000000000000000000000000000000000815260040161053e90611b74565b60405180910390fd5b60018160020160006101000a81548160ff0219169083151502179055508060010154827f040cee90ee4799897c30ca04e5feb6fa43dbba9b6d084b4b257cdafd84ba013e60405160405180910390a35050565b6003600086815260200190815260200160002060080160009054906101000a900460ff166105fd576040517f08c379a00000000000000000000000000000000000000000000000000000000081526004016105f490611be0565b60405180910390fd5b6001600081548092919061061090611c2f565b919050555060405180610100016040528060015481526020013373ffffffffffffffffffffffffffffffffffffffff1681526020018681526020018581526020018481526020018381526020018215158152602001600015158152506004600060015481526020019081526020016000206000820151816000015560208201518160010160006101000a81548173ffffffffffffffffffffffffffffffffffffffff021916908373ffffffffffffffffffffffffffffffffffffffff1602179055506040820151816002015560608201518160030190816106f19190611e23565b506080820151816004015560a08201518160050190816107119190611e23565b5060c08201518160060160006101000a81548160ff02191690831515021790555060e08201518160060160016101000a81548160ff0219169083151502179055509050503373ffffffffffffffffffffffffffffffffffffffff166001547f46b859fddff2abfe5cb3cf6fe3a8762cca5b640bb2a9c54afd2544a7ce4efa1560405160405180910390a35050505050565b60006004600083815260200190815260200160002090506000600360008360020154815260200190815260200160002090508060010160009054906101000a900473ffffffffffffffffffffffffffffffffffffffff1673ffffffffffffffffffffffffffffffffffffffff163373ffffffffffffffffffffffffffffffffffffffff1614610866576040517f08c379a000000000000000000000000000000000000000000000000000000000815260040161085d90611f41565b60405180910390fd5b8160060160009054906101000a900460ff166108b7576040517f08c379a00000000000000000000000000000000000000000000000000000000081526004016108ae90611fad565b60405180910390fd5b60018260060160016101000a81548160ff02191690831515021790555060405180606001604052808360020154815260200183600001548152602001600015158152506005600084600201548152602001908152602001600020600082015181600001556020820151816001015560408201518160020160006101000a81548160ff021916908315150217905550905050816000015482600201547f33ed8eaa8bc5b29d43d6a0fb4d870a42a8efde827064cb5a60d395014712acc760405160405180910390a3505050565b60036020528060005260406000206000915090508060000154908060010160009054906101000a900473ffffffffffffffffffffffffffffffffffffffff16908060020154908060030180546109d890611a8b565b80601f0160208091040260200160405190810160405280929190818152602001828054610a0490611a8b565b8015610a515780601f10610a2657610100808354040283529160200191610a51565b820191906000526020600020905b815481529060010190602001808311610a3457829003601f168201915b505050505090806004015490806005018054610a6c90611a8b565b80601f0160208091040260200160405190810160405280929190818152602001828054610a9890611a8b565b8015610ae55780601f10610aba57610100808354040283529160200191610ae5565b820191906000526020600020905b815481529060010190602001808311610ac857829003601f168201915b505050505090806006015490806007018054610b0090611a8b565b80601f0160208091040260200160405190810160405280929190818152602001828054610b2c90611a8b565b8015610b795780601f10610b4e57610100808354040283529160200191610b79565b820191906000526020600020905b815481529060010190602001808311610b5c57829003601f168201915b5050505050908060080160009054906101000a900460ff16905089565b600080815480929190610ba890611c2f565b919050555060405180610120016040528060005481526020013373ffffffffffffffffffffffffffffffffffffffff1681526020018781526020018681526020018581526020018481526020018381526020018281526020016001151581525060036000805481526020019081526020016000206000820151816000015560208201518160010160006101000a81548173ffffffffffffffffffffffffffffffffffffffff021916908373ffffffffffffffffffffffffffffffffffffffff160217905550604082015181600201556060820151816003019081610c8c9190611e23565b506080820151816004015560a0820151816005019081610cac9190611e23565b5060c0820151816006015560e0820151816007019081610ccc9190611e23565b506101008201518160080160006101000a81548160ff0219169083151502179055509050503373ffffffffffffffffffffffffffffffffffffffff166000547f1e6e02c9589612d091b6d88e3f0a4af8853df1573895d33dc5bd10f27bfbc59760405160405180910390a3505050505050565b60006112fb565b7f30644e72e131a029b85045b68181585d2833e84879b9709143e1f593f00000018110610d77576000805260206000f35b50565b600060405183815284602082015285604082015260408160608360076107d05a03fa915081610dad576000805260206000f35b825160408201526020830151606082015260408360808360066107d05a03fa915081610ddd576000805260206000f35b505050505050565b600060808601600087017f010ac0879f460768530a78499741756889563c43e2dc3afeb9c4ca8143d2472581527f07e17c158b10cb1944f4c811a412ab91e1f756715885769325886f3ba747b3606020820152610e8860008801357f017bc221dd9d9934d315ec2c47b18b1b1e7fc42e4d3943e6561c6cdeab9b87e97f2f21ac3a2b89801d254264e77b7f27dea278ffec01587921a9f99cddbef6804084610d7a565b610ed860208801357f06e58f62c94537cd4f983bc3a306348ead7763b83cb742ef7219877733489d4d7f0b43a990584c18c876d69fadec57f09d7e143ce0a2f265ec076dd247cc05f1ed84610d7a565b610f2860408801357f0c53a9b11178bada176077af49a7e38c5859733c5215db0dca41090ebd082b7f7f0554da4ba7f9776e0df7e50fe7bf711971071b2217800b6652abd481079015c484610d7a565b610f7860608801357f2e002e8272b07d2acaf39056f8190b4ee52cdb890d08585d719cb216851a5c2d7f2a3be893d615f9dcc0bba35492696a2f70c0a0bd1fd996b2e8fd58b815f3ce6a84610d7a565b610fc860808801357f073ea49c7523c089d9c0380a99fd707be378161f228a0492bf08d83fd140adf07f1643bcee9c072a11d653641fdfc007b5c191e51d510096ba23170968e951b6e784610d7a565b61101860a08801357f22b01b586a03f239df1eb44df38fcd125d358c7e5353ab47a1d2974549859d637f2c15c4ebf40f18a385f786b16b988f173445ebc52ce73a777196a963f3036d4e84610d7a565b833582527f30644e72e131a029b85045b68181585d97816a916871ca8d3c208c16d87cfd4760208501357f30644e72e131a029b85045b68181585d97816a916871ca8d3c208c16d87cfd4703066020830152843560408301526020850135606083015260408501356080830152606085013560a08301527f0b14bc01f34aa67f32505334697a143293e2a70a7331673ac94f7923d1fdaf1f60c08301527f25803befc613cfab10e24e798a53217728d700e792f34172dd5d0d891f0156c360e08301527f244bc00edba2d0e3c337998163ad332119d1e2e5aa6e7996ebb9b85f4070e3c16101008301527f2b50111d43d8fd69487975e4c001a7b252c1aa885daace248a1951b6034877b26101208301527f1ada24c61af370ae5179bbeccfb81925047601b6f69d2394ca3bbd20302b68106101408301527e2216099c12f36762c998e454ee2e90430c86efc60c70f0405f4a25707f073f610160830152600088015161018083015260206000018801516101a08301527f198e9393920d483a7260bfb731fb5d25f1aa493335a9e71297e485b7aef312c26101c08301527f1800deef121f1e76426a00665e5c4479674322d4f75edadd46debd5cd992f6ed6101e08301527f090689d0585ff075ec9e99ad690c3395bc4b313370b38ef355acdadcd122975b6102008301527f12c85ea5db8c6deb4aab71808dcb408fe3d1e7690c43d37b4ce6cc0166fa7daa610220830152853561024083015260208601356102608301527f1bdb443ce61ebcf93daed4215a57e1cec90ca64973023e31197a112e8cee72f66102808301527f117e26c4235f42625b3404f2973059814ff260dba7176d7aae910f493a8e1fb56102a08301527f196e247a12f580e36894f256f0c122393489b4c213b3e913250feee806ca45ff6102c08301527f2fedff4e4bbcbf9f1c56e28a060d50eef5f54e2aab897f6b465acd2ed005ae916102e08301526020826103008460086107d05a03fa82518116935050505095945050505050565b60405161038081016040526113136000840135610d46565b6113206020840135610d46565b61132d6040840135610d46565b61133a6060840135610d46565b6113476080840135610d46565b61135460a0840135610d46565b611361818486888a610de5565b8060005260206000f35b6000604051905090565b600080fd5b600080fd5b6000819050919050565b6113928161137f565b811461139d57600080fd5b50565b6000813590506113af81611389565b92915050565b6000602082840312156113cb576113ca611375565b5b60006113d9848285016113a0565b91505092915050565b6113eb8161137f565b82525050565b60008115159050919050565b611406816113f1565b82525050565b600060608201905061142160008301866113e2565b61142e60208301856113e2565b61143b60408301846113fd565b949350505050565b600060208201905061145860008301846113e2565b92915050565b600073ffffffffffffffffffffffffffffffffffffffff82169050919050565b60006114898261145e565b9050919050565b6114998161147e565b82525050565b600081519050919050565b600082825260208201905092915050565b60005b838110156114d95780820151818401526020810190506114be565b60008484015250505050565b6000601f19601f8301169050919050565b60006115018261149f565b61150b81856114aa565b935061151b8185602086016114bb565b611524816114e5565b840191505092915050565b600061010082019050611545600083018b6113e2565b611552602083018a611490565b61155f60408301896113e2565b818103606083015261157181886114f6565b905061158060808301876113e2565b81810360a083015261159281866114f6565b90506115a160c08301856113fd565b6115ae60e08301846113fd565b9998505050505050505050565b60006020820190506115d06000830184611490565b92915050565b600080fd5b6000819050826020600202820111156115f7576115f66115d6565b5b92915050565b600081905082604060020282011115611619576116186115d6565b5b92915050565b60008190508260206006028201111561163b5761163a6115d6565b5b92915050565b6000806000806101c0858703121561165c5761165b611375565b5b600061166a878288016115db565b945050604061167b878288016115fd565b93505060c061168c878288016115db565b92505061010061169e8782880161161f565b91505092959194509250565b60006020820190506116bf60008301846113fd565b92915050565b600080fd5b600080fd5b7f4e487b7100000000000000000000000000000000000000000000000000000000600052604160045260246000fd5b611707826114e5565b810181811067ffffffffffffffff82111715611726576117256116cf565b5b80604052505050565b600061173961136b565b905061174582826116fe565b919050565b600067ffffffffffffffff821115611765576117646116cf565b5b61176e826114e5565b9050602081019050919050565b82818337600083830152505050565b600061179d6117988461174a565b61172f565b9050828152602081018484840111156117b9576117b86116ca565b5b6117c484828561177b565b509392505050565b600082601f8301126117e1576117e06116c5565b5b81356117f184826020860161178a565b91505092915050565b611803816113f1565b811461180e57600080fd5b50565b600081359050611820816117fa565b92915050565b600080600080600060a0868803121561184257611841611375565b5b6000611850888289016113a0565b955050602086013567ffffffffffffffff8111156118715761187061137a565b5b61187d888289016117cc565b945050604061188e888289016113a0565b935050606086013567ffffffffffffffff8111156118af576118ae61137a565b5b6118bb888289016117cc565b92505060806118cc88828901611811565b9150509295509295909350565b6000610120820190506118ef600083018c6113e2565b6118fc602083018b611490565b611909604083018a6113e2565b818103606083015261191b81896114f6565b905061192a60808301886113e2565b81810360a083015261193c81876114f6565b905061194b60c08301866113e2565b81810360e083015261195d81856114f6565b905061196d6101008301846113fd565b9a9950505050505050505050565b60008060008060008060c0878903121561199857611997611375565b5b60006119a689828a016113a0565b965050602087013567ffffffffffffffff8111156119c7576119c661137a565b5b6119d389828a016117cc565b95505060406119e489828a016113a0565b945050606087013567ffffffffffffffff811115611a0557611a0461137a565b5b611a1189828a016117cc565b9350506080611a2289828a016113a0565b92505060a087013567ffffffffffffffff811115611a4357611a4261137a565b5b611a4f89828a016117cc565b9150509295509295509295565b7f4e487b7100000000000000000000000000000000000000000000000000000000600052602260045260246000fd5b60006002820490506001821680611aa357607f821691505b602082108103611ab657611ab5611a5c565b5b50919050565b7f4c6f616e206973206e6f7420617070726f766564000000000000000000000000600082015250565b6000611af26014836114aa565b9150611afd82611abc565b602082019050919050565b60006020820190508181036000830152611b2181611ae5565b9050919050565b7f4c6f616e20616c72656164792072657061696400000000000000000000000000600082015250565b6000611b5e6013836114aa565b9150611b6982611b28565b602082019050919050565b60006020820190508181036000830152611b8d81611b51565b9050919050565b7f4c6f616e206973206e6f74206163746976650000000000000000000000000000600082015250565b6000611bca6012836114aa565b9150611bd582611b94565b602082019050919050565b60006020820190508181036000830152611bf981611bbd565b9050919050565b7f4e487b7100000000000000000000000000000000000000000000000000000000600052601160045260246000fd5b6000611c3a8261137f565b91507fffffffffffffffffffffffffffffffffffffffffffffffffffffffffffffffff8203611c6c57611c6b611c00565b5b600182019050919050565b60008190508160005260206000209050919050565b60006020601f8301049050919050565b600082821b905092915050565b600060088302611cd97fffffffffffffffffffffffffffffffffffffffffffffffffffffffffffffffff82611c9c565b611ce38683611c9c565b95508019841693508086168417925050509392505050565b6000819050919050565b6000611d20611d1b611d168461137f565b611cfb565b61137f565b9050919050565b6000819050919050565b611d3a83611d05565b611d4e611d4682611d27565b848454611ca9565b825550505050565b600090565b611d63611d56565b611d6e818484611d31565b505050565b5b81811015611d9257611d87600082611d5b565b600181019050611d74565b5050565b601f821115611dd757611da881611c77565b611db184611c8c565b81016020851015611dc0578190505b611dd4611dcc85611c8c565b830182611d73565b50505b505050565b600082821c905092915050565b6000611dfa60001984600802611ddc565b1980831691505092915050565b6000611e138383611de9565b9150826002028217905092915050565b611e2c8261149f565b67ffffffffffffffff811115611e4557611e446116cf565b5b611e4f8254611a8b565b611e5a828285611d96565b600060209050601f831160018114611e8d5760008415611e7b578287015190505b611e858582611e07565b865550611eed565b601f198416611e9b86611c77565b60005b82811015611ec357848901518255600182019150602085019450602081019050611e9e565b86831015611ee05784890151611edc601f891682611de9565b8355505b6001600288020188555050505b505050505050565b7f4f6e6c79206c656e6465722063616e20617070726f7665000000000000000000600082015250565b6000611f2b6017836114aa565b9150611f3682611ef5565b602082019050919050565b60006020820190508181036000830152611f5a81611f1e565b9050919050565b7f5468726573686f6c64206e6f74206d6574000000000000000000000000000000600082015250565b6000611f976011836114aa565b9150611fa282611f61565b602082019050919050565b60006020820190508181036000830152611fc681611f8a565b905091905056fea2646970667358221220a3c43c6bfe82bf5efcb6ddb3de12aa47f2ac5cc065c522afea324e526e4a891964736f6c634300081c0033","opcodes":"PUSH1 0x80 PUSH1 0x40 MSTORE CALLVALUE DUP1 ISZERO PUSH1 0xF JUMPI PUSH1 0x0 DUP1 REVERT JUMPDEST POP CALLER PUSH1 0x2 PUSH1 0x0 PUSH2 0x100 EXP DUP2 SLOAD DUP2 PUSH20 0xFFFFFFFFFFFFFFFFFFFFFFFFFFFFFFFFFFFFFFFF MUL NOT AND SWAP1 DUP4 PUSH20 0xFFFFFFFFFFFFFFFFFFFFFFFFFFFFFFFFFFFFFFFF AND MUL OR SWAP1 SSTORE POP PUSH2 0x2003 DUP1 PUSH2 0x60 PUSH1 0x0 CODECOPY PUSH1 0x0 RETURN INVALID PUSH1 0x80 PUSH1 0x40 MSTORE CALLVALUE DUP1 ISZERO PUSH2 0x10 JUMPI PUSH1 0x0 DUP1 REVERT JUMPDEST POP PUSH1 0x4 CALLDATASIZE LT PUSH2 0xB4 JUMPI PUSH1 0x0 CALLDATALOAD PUSH1 0xE0 SHR DUP1 PUSH4 0xAB7B1C89 GT PUSH2 0x71 JUMPI DUP1 PUSH4 0xAB7B1C89 EQ PUSH2 0x1AC JUMPI DUP1 PUSH4 0xBA5F1FB4 EQ PUSH2 0x1C8 JUMPI DUP1 PUSH4 0xE12003E3 EQ PUSH2 0x1E4 JUMPI DUP1 PUSH4 0xE1EC3C68 EQ PUSH2 0x200 JUMPI DUP1 PUSH4 0xE707FF81 EQ PUSH2 0x238 JUMPI DUP1 PUSH4 0xF398789B EQ PUSH2 0x254 JUMPI PUSH2 0xB4 JUMP JUMPDEST DUP1 PUSH4 0x1EBDE2C5 EQ PUSH2 0xB9 JUMPI DUP1 PUSH4 0x2AFC153A EQ PUSH2 0xEB JUMPI DUP1 PUSH4 0x34D9289E EQ PUSH2 0x109 JUMPI DUP1 PUSH4 0x50D282FC EQ PUSH2 0x127 JUMPI DUP1 PUSH4 0x8DA5CB5B EQ PUSH2 0x15E JUMPI DUP1 PUSH4 0x9968C24D EQ PUSH2 0x17C JUMPI JUMPDEST PUSH1 0x0 DUP1 REVERT JUMPDEST PUSH2 0xD3 PUSH1 0x4 DUP1 CALLDATASIZE SUB DUP2 ADD SWAP1 PUSH2 0xCE SWAP2 SWAP1 PUSH2 0x13B5 JUMP JUMPDEST PUSH2 0x284 JUMP JUMPDEST PUSH1 0x40 MLOAD PUSH2 0xE2 SWAP4 SWAP3 SWAP2 SWAP1 PUSH2 0x140C JUMP JUMPDEST PUSH1 0x40 MLOAD DUP1 SWAP2 SUB SWAP1 RETURN JUMPDEST PUSH2 0xF3 PUSH2 0x2BB JUMP JUMPDEST PUSH1 0x40 MLOAD PUSH2 0x100 SWAP2 SWAP1 PUSH2 0x1443 JUMP JUMPDEST PUSH1 0x40 MLOAD DUP1 SWAP2 SUB SWAP1 RETURN JUMPDEST PUSH2 0x111 PUSH2 0x2C1 JUMP JUMPDEST PUSH1 0x40 MLOAD PUSH2 0x11E SWAP2 SWAP1 PUSH2 0x1443 JUMP JUMPDEST PUSH1 0x40 MLOAD DUP1 SWAP2 SUB SWAP1 RETURN JUMPDEST PUSH2 0x141 PUSH1 0x4 DUP1 CALLDATASIZE SUB DUP2 ADD SWAP1 PUSH2 0x13C SWAP2 SWAP1 PUSH2 0x13B5 JUMP JUMPDEST PUSH2 0x2C7 JUMP JUMPDEST PUSH1 0x40 MLOAD PUSH2 0x155 SWAP9 SWAP8 SWAP7 SWAP6 SWAP5 SWAP4 SWAP3 SWAP2 SWAP1 PUSH2 0x152F JUMP JUMPDEST PUSH1 0x40 MLOAD DUP1 SWAP2 SUB SWAP1 RETURN JUMPDEST PUSH2 0x166 PUSH2 0x459 JUMP JUMPDEST PUSH1 0x40 MLOAD PUSH2 0x173 SWAP2 SWAP1 PUSH2 0x15BB JUMP JUMPDEST PUSH1 0x40 MLOAD DUP1 SWAP2 SUB SWAP1 RETURN JUMPDEST PUSH2 0x196 PUSH1 0x4 DUP1 CALLDATASIZE SUB DUP2 ADD SWAP1 PUSH2 0x191 SWAP2 SWAP1 PUSH2 0x1641 JUMP JUMPDEST PUSH2 0x47F JUMP JUMPDEST PUSH1 0x40 MLOAD PUSH2 0x1A3 SWAP2 SWAP1 PUSH2 0x16AA JUMP JUMPDEST PUSH1 0x40 MLOAD DUP1 SWAP2 SUB SWAP1 RETURN JUMPDEST PUSH2 0x1C6 PUSH1 0x4 DUP1 CALLDATASIZE SUB DUP2 ADD SWAP1 PUSH2 0x1C1 SWAP2 SWAP1 PUSH2 0x13B5 JUMP JUMPDEST PUSH2 0x497 JUMP JUMPDEST STOP JUMPDEST PUSH2 0x1E2 PUSH1 0x4 DUP1 CALLDATASIZE SUB DUP2 ADD SWAP1 PUSH2 0x1DD SWAP2 SWAP1 PUSH2 0x1826 JUMP JUMPDEST PUSH2 0x59A JUMP JUMPDEST STOP JUMPDEST PUSH2 0x1FE PUSH1 0x4 DUP1 CALLDATASIZE SUB DUP2 ADD SWAP1 PUSH2 0x1F9 SWAP2 SWAP1 PUSH2 0x13B5 JUMP JUMPDEST PUSH2 0x7A2 JUMP JUMPDEST STOP JUMPDEST PUSH2 0x21A PUSH1 0x4 DUP1 CALLDATASIZE SUB DUP2 ADD SWAP1 PUSH2 0x215 SWAP2 SWAP1 PUSH2 0x13B5 JUMP JUMPDEST PUSH2 0x983 JUMP JUMPDEST PUSH1 0x40 MLOAD PUSH2 0x22F SWAP10 SWAP9 SWAP8 SWAP7 SWAP6 SWAP5 SWAP4 SWAP3 SWAP2 SWAP1 PUSH2 0x18D9 JUMP JUMPDEST PUSH1 0x40 MLOAD DUP1 SWAP2 SUB SWAP1 RETURN JUMPDEST PUSH2 0x252 PUSH1 0x4 DUP1 CALLDATASIZE SUB DUP2 ADD SWAP1 PUSH2 0x24D SWAP2 SWAP1 PUSH2 0x197B JUMP JUMPDEST PUSH2 0xB96 JUMP JUMPDEST STOP JUMPDEST PUSH2 0x26E PUSH1 0x4 DUP1 CALLDATASIZE SUB DUP2 ADD SWAP1 PUSH2 0x269 SWAP2 SWAP1 PUSH2 0x1641 JUMP JUMPDEST PUSH2 0xD3F JUMP JUMPDEST PUSH1 0x40 MLOAD PUSH2 0x27B SWAP2 SWAP1 PUSH2 0x16AA JUMP JUMPDEST PUSH1 0x40 MLOAD DUP1 SWAP2 SUB SWAP1 RETURN JUMPDEST PUSH1 0x5 PUSH1 0x20 MSTORE DUP1 PUSH1 0x0 MSTORE PUSH1 0x40 PUSH1 0x0 KECCAK256 PUSH1 0x0 SWAP2 POP SWAP1 POP DUP1 PUSH1 0x0 ADD SLOAD SWAP1 DUP1 PUSH1 0x1 ADD SLOAD SWAP1 DUP1 PUSH1 0x2 ADD PUSH1 0x0 SWAP1 SLOAD SWAP1 PUSH2 0x100 EXP SWAP1 DIV PUSH1 0xFF AND SWAP1 POP DUP4 JUMP JUMPDEST PUSH1 0x1 SLOAD DUP2 JUMP JUMPDEST PUSH1 0x0 SLOAD DUP2 JUMP JUMPDEST PUSH1 0x4 PUSH1 0x20 MSTORE DUP1 PUSH1 0x0 MSTORE PUSH1 0x40 PUSH1 0x0 KECCAK256 PUSH1 0x0 SWAP2 POP SWAP1 POP DUP1 PUSH1 0x0 ADD SLOAD SWAP1 DUP1 PUSH1 0x1 ADD PUSH1 0x0 SWAP1 SLOAD SWAP1 PUSH2 0x100 EXP SWAP1 DIV PUSH20 0xFFFFFFFFFFFFFFFFFFFFFFFFFFFFFFFFFFFFFFFF AND SWAP1 DUP1 PUSH1 0x2 ADD SLOAD SWAP1 DUP1 PUSH1 0x3 ADD DUP1 SLOAD PUSH2 0x31C SWAP1 PUSH2 0x1A8B JUMP JUMPDEST DUP1 PUSH1 0x1F ADD PUSH1 0x20 DUP1 SWAP2 DIV MUL PUSH1 0x20 ADD PUSH1 0x40 MLOAD SWAP1 DUP2 ADD PUSH1 0x40 MSTORE DUP1 SWAP3 SWAP2 SWAP1 DUP2 DUP2 MSTORE PUSH1 0x20 ADD DUP3 DUP1 SLOAD PUSH2 0x348 SWAP1 PUSH2 0x1A8B JUMP JUMPDEST DUP1 ISZERO PUSH2 0x395 JUMPI DUP1 PUSH1 0x1F LT PUSH2 0x36A JUMPI PUSH2 0x100 DUP1 DUP4 SLOAD DIV MUL DUP4 MSTORE SWAP2 PUSH1 0x20 ADD SWAP2 PUSH2 0x395 JUMP JUMPDEST DUP3 ADD SWAP2 SWAP1 PUSH1 0x0 MSTORE PUSH1 0x20 PUSH1 0x0 KECCAK256 SWAP1 JUMPDEST DUP2 SLOAD DUP2 MSTORE SWAP1 PUSH1 0x1 ADD SWAP1 PUSH1 0x20 ADD DUP1 DUP4 GT PUSH2 0x378 JUMPI DUP3 SWAP1 SUB PUSH1 0x1F AND DUP3 ADD SWAP2 JUMPDEST POP POP POP POP POP SWAP1 DUP1 PUSH1 0x4 ADD SLOAD SWAP1 DUP1 PUSH1 0x5 ADD DUP1 SLOAD PUSH2 0x3B0 SWAP1 PUSH2 0x1A8B JUMP JUMPDEST DUP1 PUSH1 0x1F ADD PUSH1 0x20 DUP1 SWAP2 DIV MUL PUSH1 0x20 ADD PUSH1 0x40 MLOAD SWAP1 DUP2 ADD PUSH1 0x40 MSTORE DUP1 SWAP3 SWAP2 SWAP1 DUP2 DUP2 MSTORE PUSH1 0x20 ADD DUP3 DUP1 SLOAD PUSH2 0x3DC SWAP1 PUSH2 0x1A8B JUMP JUMPDEST DUP1 ISZERO PUSH2 0x429 JUMPI DUP1 PUSH1 0x1F LT PUSH2 0x3FE JUMPI PUSH2 0x100 DUP1 DUP4 SLOAD DIV MUL DUP4 MSTORE SWAP2 PUSH1 0x20 ADD SWAP2 PUSH2 0x429 JUMP JUMPDEST DUP3 ADD SWAP2 SWAP1 PUSH1 0x0 MSTORE PUSH1 0x20 PUSH1 0x0 KECCAK256 SWAP1 JUMPDEST DUP2 SLOAD DUP2 MSTORE SWAP1 PUSH1 0x1 ADD SWAP1 PUSH1 0x20 ADD DUP1 DUP4 GT PUSH2 0x40C JUMPI DUP3 SWAP1 SUB PUSH1 0x1F AND DUP3 ADD SWAP2 JUMPDEST POP POP POP POP POP SWAP1 DUP1 PUSH1 0x6 ADD PUSH1 0x0 SWAP1 SLOAD SWAP1 PUSH2 0x100 EXP SWAP1 DIV PUSH1 0xFF AND SWAP1 DUP1 PUSH1 0x6 ADD PUSH1 0x1 SWAP1 SLOAD SWAP1 PUSH2 0x100 EXP SWAP1 DIV PUSH1 0xFF AND SWAP1 POP DUP9 JUMP JUMPDEST PUSH1 0x2 PUSH1 0x0 SWAP1 SLOAD SWAP1 PUSH2 0x100 EXP SWAP1 DIV PUSH20 0xFFFFFFFFFFFFFFFFFFFFFFFFFFFFFFFFFFFFFFFF AND DUP2 JUMP JUMPDEST PUSH1 0x0 PUSH2 0x48D DUP6 DUP6 DUP6 DUP6 PUSH2 0xD3F JUMP JUMPDEST SWAP1 POP SWAP5 SWAP4 POP POP POP POP JUMP JUMPDEST PUSH1 0x0 PUSH1 0x5 PUSH1 0x0 DUP4 DUP2 MSTORE PUSH1 0x20 ADD SWAP1 DUP2 MSTORE PUSH1 0x20 ADD PUSH1 0x0 KECCAK256 SWAP1 POP PUSH1 0x0 DUP2 PUSH1 0x1 ADD SLOAD SUB PUSH2 0x4F5 JUMPI PUSH1 0x40 MLOAD PUSH32 0x8C379A000000000000000000000000000000000000000000000000000000000 DUP2 MSTORE PUSH1 0x4 ADD PUSH2 0x4EC SWAP1 PUSH2 0x1B08 JUMP JUMPDEST PUSH1 0x40 MLOAD DUP1 SWAP2 SUB SWAP1 REVERT JUMPDEST DUP1 PUSH1 0x2 ADD PUSH1 0x0 SWAP1 SLOAD SWAP1 PUSH2 0x100 EXP SWAP1 DIV PUSH1 0xFF AND ISZERO PUSH2 0x547 JUMPI PUSH1 0x40 MLOAD PUSH32 0x8C379A000000000000000000000000000000000000000000000000000000000 DUP2 MSTORE PUSH1 0x4 ADD PUSH2 0x53E SWAP1 PUSH2 0x1B74 JUMP JUMPDEST PUSH1 0x40 MLOAD DUP1 SWAP2 SUB SWAP1 REVERT JUMPDEST PUSH1 0x1 DUP2 PUSH1 0x2 ADD PUSH1 0x0 PUSH2 0x100 EXP DUP2 SLOAD DUP2 PUSH1 0xFF MUL NOT AND SWAP1 DUP4 ISZERO ISZERO MUL OR SWAP1 SSTORE POP DUP1 PUSH1 0x1 ADD SLOAD DUP3 PUSH32 0x40CEE90EE4799897C30CA04E5FEB6FA43DBBA9B6D084B4B257CDAFD84BA013E PUSH1 0x40 MLOAD PUSH1 0x40 MLOAD DUP1 SWAP2 SUB SWAP1 LOG3 POP POP JUMP JUMPDEST PUSH1 0x3 PUSH1 0x0 DUP7 DUP2 MSTORE PUSH1 0x20 ADD SWAP1 DUP2 MSTORE PUSH1 0x20 ADD PUSH1 0x0 KECCAK256 PUSH1 0x8 ADD PUSH1 0x0 SWAP1 SLOAD SWAP1 PUSH2 0x100 EXP SWAP1 DIV PUSH1 0xFF AND PUSH2 0x5FD JUMPI PUSH1 0x40 MLOAD PUSH32 0x8C379A000000000000000000000000000000000000000000000000000000000 DUP2 MSTORE PUSH1 0x4 ADD PUSH2 0x5F4 SWAP1 PUSH2 0x1BE0 JUMP JUMPDEST PUSH1 0x40 MLOAD DUP1 SWAP2 SUB SWAP1 REVERT JUMPDEST PUSH1 0x1 PUSH1 0x0 DUP2 SLOAD DUP1 SWAP3 SWAP2 SWAP1 PUSH2 0x610 SWAP1 PUSH2 0x1C2F JUMP JUMPDEST SWAP2 SWAP1 POP SSTORE POP PUSH1 0x40 MLOAD DUP1 PUSH2 0x100 ADD PUSH1 0x40 MSTORE DUP1 PUSH1 0x1 SLOAD DUP2 MSTORE PUSH1 0x20 ADD CALLER PUSH20 0xFFFFFFFFFFFFFFFFFFFFFFFFFFFFFFFFFFFFFFFF AND DUP2 MSTORE PUSH1 0x20 ADD DUP7 DUP2 MSTORE PUSH1 0x20 ADD DUP6 DUP2 MSTORE PUSH1 0x20 ADD DUP5 DUP2 MSTORE PUSH1 0x20 ADD DUP4 DUP2 MSTORE PUSH1 0x20 ADD DUP3 ISZERO ISZERO DUP2 MSTORE PUSH1 0x20 ADD PUSH1 0x0 ISZERO ISZERO DUP2 MSTORE POP PUSH1 0x4 PUSH1 0x0 PUSH1 0x1 SLOAD DUP2 MSTORE PUSH1 0x20 ADD SWAP1 DUP2 MSTORE PUSH1 0x20 ADD PUSH1 0x0 KECCAK256 PUSH1 0x0 DUP3 ADD MLOAD DUP2 PUSH1 0x0 ADD SSTORE PUSH1 0x20 DUP3 ADD MLOAD DUP2 PUSH1 0x1 ADD PUSH1 0x0 PUSH2 0x100 EXP DUP2 SLOAD DUP2 PUSH20 0xFFFFFFFFFFFFFFFFFFFFFFFFFFFFFFFFFFFFFFFF MUL NOT AND SWAP1 DUP4 PUSH20 0xFFFFFFFFFFFFFFFFFFFFFFFFFFFFFFFFFFFFFFFF AND MUL OR SWAP1 SSTORE POP PUSH1 0x40 DUP3 ADD MLOAD DUP2 PUSH1 0x2 ADD SSTORE PUSH1 0x60 DUP3 ADD MLOAD DUP2 PUSH1 0x3 ADD SWAP1 DUP2 PUSH2 0x6F1 SWAP2 SWAP1 PUSH2 0x1E23 JUMP JUMPDEST POP PUSH1 0x80 DUP3 ADD MLOAD DUP2 PUSH1 0x4 ADD SSTORE PUSH1 0xA0 DUP3 ADD MLOAD DUP2 PUSH1 0x5 ADD SWAP1 DUP2 PUSH2 0x711 SWAP2 SWAP1 PUSH2 0x1E23 JUMP JUMPDEST POP PUSH1 0xC0 DUP3 ADD MLOAD DUP2 PUSH1 0x6 ADD PUSH1 0x0 PUSH2 0x100 EXP DUP2 SLOAD DUP2 PUSH1 0xFF MUL NOT AND SWAP1 DUP4 ISZERO ISZERO MUL OR SWAP1 SSTORE POP PUSH1 0xE0 DUP3 ADD MLOAD DUP2 PUSH1 0x6 ADD PUSH1 0x1 PUSH2 0x100 EXP DUP2 SLOAD DUP2 PUSH1 0xFF MUL NOT AND SWAP1 DUP4 ISZERO ISZERO MUL OR SWAP1 SSTORE POP SWAP1 POP POP CALLER PUSH20 0xFFFFFFFFFFFFFFFFFFFFFFFFFFFFFFFFFFFFFFFF AND PUSH1 0x1 SLOAD PUSH32 0x46B859FDDFF2ABFE5CB3CF6FE3A8762CCA5B640BB2A9C54AFD2544A7CE4EFA15 PUSH1 0x40 MLOAD PUSH1 0x40 MLOAD DUP1 SWAP2 SUB SWAP1 LOG3 POP POP POP POP POP JUMP JUMPDEST PUSH1 0x0 PUSH1 0x4 PUSH1 0x0 DUP4 DUP2 MSTORE PUSH1 0x20 ADD SWAP1 DUP2 MSTORE PUSH1 0x20 ADD PUSH1 0x0 KECCAK256 SWAP1 POP PUSH1 0x0 PUSH1 0x3 PUSH1 0x0 DUP4 PUSH1 0x2 ADD SLOAD DUP2 MSTORE PUSH1 0x20 ADD SWAP1 DUP2 MSTORE PUSH1 0x20 ADD PUSH1 0x0 KECCAK256 SWAP1 POP DUP1 PUSH1 0x1 ADD PUSH1 0x0 SWAP1 SLOAD SWAP1 PUSH2 0x100 EXP SWAP1 DIV PUSH20 0xFFFFFFFFFFFFFFFFFFFFFFFFFFFFFFFFFFFFFFFF AND PUSH20 0xFFFFFFFFFFFFFFFFFFFFFFFFFFFFFFFFFFFFFFFF AND CALLER PUSH20 0xFFFFFFFFFFFFFFFFFFFFFFFFFFFFFFFFFFFFFFFF AND EQ PUSH2 0x866 JUMPI PUSH1 0x40 MLOAD PUSH32 0x8C379A000000000000000000000000000000000000000000000000000000000 DUP2 MSTORE PUSH1 0x4 ADD PUSH2 0x85D SWAP1 PUSH2 0x1F41 JUMP JUMPDEST PUSH1 0x40 MLOAD DUP1 SWAP2 SUB SWAP1 REVERT JUMPDEST DUP2 PUSH1 0x6 ADD PUSH1 0x0 SWAP1 SLOAD SWAP1 PUSH2 0x100 EXP SWAP1 DIV PUSH1 0xFF AND PUSH2 0x8B7 JUMPI PUSH1 0x40 MLOAD PUSH32 0x8C379A000000000000000000000000000000000000000000000000000000000 DUP2 MSTORE PUSH1 0x4 ADD PUSH2 0x8AE SWAP1 PUSH2 0x1FAD JUMP JUMPDEST PUSH1 0x40 MLOAD DUP1 SWAP2 SUB SWAP1 REVERT JUMPDEST PUSH1 0x1 DUP3 PUSH1 0x6 ADD PUSH1 0x1 PUSH2 0x100 EXP DUP2 SLOAD DUP2 PUSH1 0xFF MUL NOT AND SWAP1 DUP4 ISZERO ISZERO MUL OR SWAP1 SSTORE POP PUSH1 0x40 MLOAD DUP1 PUSH1 0x60 ADD PUSH1 0x40 MSTORE DUP1 DUP4 PUSH1 0x2 ADD SLOAD DUP2 MSTORE PUSH1 0x20 ADD DUP4 PUSH1 0x0 ADD SLOAD DUP2 MSTORE PUSH1 0x20 ADD PUSH1 0x0 ISZERO ISZERO DUP2 MSTORE POP PUSH1 0x5 PUSH1 0x0 DUP5 PUSH1 0x2 ADD SLOAD DUP2 MSTORE PUSH1 0x20 ADD SWAP1 DUP2 MSTORE PUSH1 0x20 ADD PUSH1 0x0 KECCAK256 PUSH1 0x0 DUP3 ADD MLOAD DUP2 PUSH1 0x0 ADD SSTORE PUSH1 0x20 DUP3 ADD MLOAD DUP2 PUSH1 0x1 ADD SSTORE PUSH1 0x40 DUP3 ADD MLOAD DUP2 PUSH1 0x2 ADD PUSH1 0x0 PUSH2 0x100 EXP DUP2 SLOAD DUP2 PUSH1 0xFF MUL NOT AND SWAP1 DUP4 ISZERO ISZERO MUL OR SWAP1 SSTORE POP SWAP1 POP POP DUP2 PUSH1 0x0 ADD SLOAD DUP3 PUSH1 0x2 ADD SLOAD PUSH32 0x33ED8EAA8BC5B29D43D6A0FB4D870A42A8EFDE827064CB5A60D395014712ACC7 PUSH1 0x40 MLOAD PUSH1 0x40 MLOAD DUP1 SWAP2 SUB SWAP1 LOG3 POP POP POP JUMP JUMPDEST PUSH1 0x3 PUSH1 0x20 MSTORE DUP1 PUSH1 0x0 MSTORE PUSH1 0x40 PUSH1 0x0 KECCAK256 PUSH1 0x0 SWAP2 POP SWAP1 POP DUP1 PUSH1 0x0 ADD SLOAD SWAP1 DUP1 PUSH1 0x1 ADD PUSH1 0x0 SWAP1 SLOAD SWAP1 PUSH2 0x100 EXP SWAP1 DIV PUSH20 0xFFFFFFFFFFFFFFFFFFFFFFFFFFFFFFFFFFFFFFFF AND SWAP1 DUP1 PUSH1 0x2 ADD SLOAD SWAP1 DUP1 PUSH1 0x3 ADD DUP1 SLOAD PUSH2 0x9D8 SWAP1 PUSH2 0x1A8B JUMP JUMPDEST DUP1 PUSH1 0x1F ADD PUSH1 0x20 DUP1 SWAP2 DIV MUL PUSH1 0x20 ADD PUSH1 0x40 MLOAD SWAP1 DUP2 ADD PUSH1 0x40 MSTORE DUP1 SWAP3 SWAP2 SWAP1 DUP2 DUP2 MSTORE PUSH1 0x20 ADD DUP3 DUP1 SLOAD PUSH2 0xA04 SWAP1 PUSH2 0x1A8B JUMP JUMPDEST DUP1 ISZERO PUSH2 0xA51 JUMPI DUP1 PUSH1 0x1F LT PUSH2 0xA26 JUMPI PUSH2 0x100 DUP1 DUP4 SLOAD DIV MUL DUP4 MSTORE SWAP2 PUSH1 0x20 ADD SWAP2 PUSH2 0xA51 JUMP JUMPDEST DUP3 ADD SWAP2 SWAP1 PUSH1 0x0 MSTORE PUSH1 0x20 PUSH1 0x0 KECCAK256 SWAP1 JUMPDEST DUP2 SLOAD DUP2 MSTORE SWAP1 PUSH1 0x1 ADD SWAP1 PUSH1 0x20 ADD DUP1 DUP4 GT PUSH2 0xA34 JUMPI DUP3 SWAP1 SUB PUSH1 0x1F AND DUP3 ADD SWAP2 JUMPDEST POP POP POP POP POP SWAP1 DUP1 PUSH1 0x4 ADD SLOAD SWAP1 DUP1 PUSH1 0x5 ADD DUP1 SLOAD PUSH2 0xA6C SWAP1 PUSH2 0x1A8B JUMP JUMPDEST DUP1 PUSH1 0x1F ADD PUSH1 0x20 DUP1 SWAP2 DIV MUL PUSH1 0x20 ADD PUSH1 0x40 MLOAD SWAP1 DUP2 ADD PUSH1 0x40 MSTORE DUP1 SWAP3 SWAP2 SWAP1 DUP2 DUP2 MSTORE PUSH1 0x20 ADD DUP3 DUP1 SLOAD PUSH2 0xA98 SWAP1 PUSH2 0x1A8B JUMP JUMPDEST DUP1 ISZERO PUSH2 0xAE5 JUMPI DUP1 PUSH1 0x1F LT PUSH2 0xABA JUMPI PUSH2 0x100 DUP1 DUP4 SLOAD DIV MUL DUP4 MSTORE SWAP2 PUSH1 0x20 ADD SWAP2 PUSH2 0xAE5 JUMP JUMPDEST DUP3 ADD SWAP2 SWAP1 PUSH1 0x0 MSTORE PUSH1 0x20 PUSH1 0x0 KECCAK256 SWAP1 JUMPDEST DUP2 SLOAD DUP2 MSTORE SWAP1 PUSH1 0x1 ADD SWAP1 PUSH1 0x20 ADD DUP1 DUP4 GT PUSH2 0xAC8 JUMPI DUP3 SWAP1 SUB PUSH1 0x1F AND DUP3 ADD SWAP2 JUMPDEST POP POP POP POP POP SWAP1 DUP1 PUSH1 0x6 ADD SLOAD SWAP1 DUP1 PUSH1 0x7 ADD DUP1 SLOAD PUSH2 0xB00 SWAP1 PUSH2 0x1A8B JUMP JUMPDEST DUP1 PUSH1 0x1F ADD PUSH1 0x20 DUP1 SWAP2 DIV MUL PUSH1 0x20 ADD PUSH1 0x40 MLOAD SWAP1 DUP2 ADD PUSH1 0x40 MSTORE DUP1 SWAP3 SWAP2 SWAP1 DUP2 DUP2 MSTORE PUSH1 0x20 ADD DUP3 DUP1 SLOAD PUSH2 0xB2C SWAP1 PUSH2 0x1A8B JUMP JUMPDEST DUP1 ISZERO PUSH2 0xB79 JUMPI DUP1 PUSH1 0x1F LT PUSH2 0xB4E JUMPI PUSH2 0x100 DUP1 DUP4 SLOAD DIV MUL DUP4 MSTORE SWAP2 PUSH1 0x20 ADD SWAP2 PUSH2 0xB79 JUMP JUMPDEST DUP3 ADD SWAP2 SWAP1 PUSH1 0x0 MSTORE PUSH1 0x20 PUSH1 0x0 KECCAK256 SWAP1 JUMPDEST DUP2 SLOAD DUP2 MSTORE SWAP1 PUSH1 0x1 ADD SWAP1 PUSH1 0x20 ADD DUP1 DUP4 GT PUSH2 0xB5C JUMPI DUP3 SWAP1 SUB PUSH1 0x1F AND DUP3 ADD SWAP2 JUMPDEST POP POP POP POP POP SWAP1 DUP1 PUSH1 0x8 ADD PUSH1 0x0 SWAP1 SLOAD SWAP1 PUSH2 0x100 EXP SWAP1 DIV PUSH1 0xFF AND SWAP1 POP DUP10 JUMP JUMPDEST PUSH1 0x0 DUP1 DUP2 SLOAD DUP1 SWAP3 SWAP2 SWAP1 PUSH2 0xBA8 SWAP1 PUSH2 0x1C2F JUMP JUMPDEST SWAP2 SWAP1 POP SSTORE POP PUSH1 0x40 MLOAD DUP1 PUSH2 0x120 ADD PUSH1 0x40 MSTORE DUP1 PUSH1 0x0 SLOAD DUP2 MSTORE PUSH1 0x20 ADD CALLER PUSH20 0xFFFFFFFFFFFFFFFFFFFFFFFFFFFFFFFFFFFFFFFF AND DUP2 MSTORE PUSH1 0x20 ADD DUP8 DUP2 MSTORE PUSH1 0x20 ADD DUP7 DUP2 MSTORE PUSH1 0x20 ADD DUP6 DUP2 MSTORE PUSH1 0x20 ADD DUP5 DUP2 MSTORE PUSH1 0x20 ADD DUP4 DUP2 MSTORE PUSH1 0x20 ADD DUP3 DUP2 MSTORE PUSH1 0x20 ADD PUSH1 0x1 ISZERO ISZERO DUP2 MSTORE POP PUSH1 0x3 PUSH1 0x0 DUP1 SLOAD DUP2 MSTORE PUSH1 0x20 ADD SWAP1 DUP2 MSTORE PUSH1 0x20 ADD PUSH1 0x0 KECCAK256 PUSH1 0x0 DUP3 ADD MLOAD DUP2 PUSH1 0x0 ADD SSTORE PUSH1 0x20 DUP3 ADD MLOAD DUP2 PUSH1 0x1 ADD PUSH1 0x0 PUSH2 0x100 EXP DUP2 SLOAD DUP2 PUSH20 0xFFFFFFFFFFFFFFFFFFFFFFFFFFFFFFFFFFFFFFFF MUL NOT AND SWAP1 DUP4 PUSH20 0xFFFFFFFFFFFFFFFFFFFFFFFFFFFFFFFFFFFFFFFF AND MUL OR SWAP1 SSTORE POP PUSH1 0x40 DUP3 ADD MLOAD DUP2 PUSH1 0x2 ADD SSTORE PUSH1 0x60 DUP3 ADD MLOAD DUP2 PUSH1 0x3 ADD SWAP1 DUP2 PUSH2 0xC8C SWAP2 SWAP1 PUSH2 0x1E23 JUMP JUMPDEST POP PUSH1 0x80 DUP3 ADD MLOAD DUP2 PUSH1 0x4 ADD SSTORE PUSH1 0xA0 DUP3 ADD MLOAD DUP2 PUSH1 0x5 ADD SWAP1 DUP2 PUSH2 0xCAC SWAP2 SWAP1 PUSH2 0x1E23 JUMP JUMPDEST POP PUSH1 0xC0 DUP3 ADD MLOAD DUP2 PUSH1 0x6 ADD SSTORE PUSH1 0xE0 DUP3 ADD MLOAD DUP2 PUSH1 0x7 ADD SWAP1 DUP2 PUSH2 0xCCC SWAP2 SWAP1 PUSH2 0x1E23 JUMP JUMPDEST POP PUSH2 0x100 DUP3 ADD MLOAD DUP2 PUSH1 0x8 ADD PUSH1 0x0 PUSH2 0x100 EXP DUP2 SLOAD DUP2 PUSH1 0xFF MUL NOT AND SWAP1 DUP4 ISZERO ISZERO MUL OR SWAP1 SSTORE POP SWAP1 POP POP CALLER PUSH20 0xFFFFFFFFFFFFFFFFFFFFFFFFFFFFFFFFFFFFFFFF AND PUSH1 0x0 SLOAD PUSH32 0x1E6E02C9589612D091B6D88E3F0A4AF8853DF1573895D33DC5BD10F27BFBC597 PUSH1 0x40 MLOAD PUSH1 0x40 MLOAD DUP1 SWAP2 SUB SWAP1 LOG3 POP POP POP POP POP POP JUMP JUMPDEST PUSH1 0x0 PUSH2 0x12FB JUMP JUMPDEST PUSH32 0x30644E72E131A029B85045B68181585D2833E84879B9709143E1F593F0000001 DUP2 LT PUSH2 0xD77 JUMPI PUSH1 0x0 DUP1 MSTORE PUSH1 0x20 PUSH1 0x0 RETURN JUMPDEST POP JUMP JUMPDEST PUSH1 0x0 PUSH1 0x40 MLOAD DUP4 DUP2 MSTORE DUP5 PUSH1 0x20 DUP3 ADD MSTORE DUP6 PUSH1 0x40 DUP3 ADD MSTORE PUSH1 0x40 DUP2 PUSH1 0x60 DUP4 PUSH1 0x7 PUSH2 0x7D0 GAS SUB STATICCALL SWAP2 POP DUP2 PUSH2 0xDAD JUMPI PUSH1 0x0 DUP1 MSTORE PUSH1 0x20 PUSH1 0x0 RETURN JUMPDEST DUP3 MLOAD PUSH1 0x40 DUP3 ADD MSTORE PUSH1 0x20 DUP4 ADD MLOAD PUSH1 0x60 DUP3 ADD MSTORE PUSH1 0x40 DUP4 PUSH1 0x80 DUP4 PUSH1 0x6 PUSH2 0x7D0 GAS SUB STATICCALL SWAP2 POP DUP2 PUSH2 0xDDD JUMPI PUSH1 0x0 DUP1 MSTORE PUSH1 0x20 PUSH1 0x0 RETURN JUMPDEST POP POP POP POP POP POP JUMP JUMPDEST PUSH1 0x0 PUSH1 0x80 DUP7 ADD PUSH1 0x0 DUP8 ADD PUSH32 0x10AC0879F460768530A78499741756889563C43E2DC3AFEB9C4CA8143D24725 DUP2 MSTORE PUSH32 0x7E17C158B10CB1944F4C811A412AB91E1F756715885769325886F3BA747B360 PUSH1 0x20 DUP3 ADD MSTORE PUSH2 0xE88 PUSH1 0x0 DUP9 ADD CALLDATALOAD PUSH32 0x17BC221DD9D9934D315EC2C47B18B1B1E7FC42E4D3943E6561C6CDEAB9B87E9 PUSH32 0x2F21AC3A2B89801D254264E77B7F27DEA278FFEC01587921A9F99CDDBEF68040 DUP5 PUSH2 0xD7A JUMP JUMPDEST PUSH2 0xED8 PUSH1 0x20 DUP9 ADD CALLDATALOAD PUSH32 0x6E58F62C94537CD4F983BC3A306348EAD7763B83CB742EF7219877733489D4D PUSH32 0xB43A990584C18C876D69FADEC57F09D7E143CE0A2F265EC076DD247CC05F1ED DUP5 PUSH2 0xD7A JUMP JUMPDEST PUSH2 0xF28 PUSH1 0x40 DUP9 ADD CALLDATALOAD PUSH32 0xC53A9B11178BADA176077AF49A7E38C5859733C5215DB0DCA41090EBD082B7F PUSH32 0x554DA4BA7F9776E0DF7E50FE7BF711971071B2217800B6652ABD481079015C4 DUP5 PUSH2 0xD7A JUMP JUMPDEST PUSH2 0xF78 PUSH1 0x60 DUP9 ADD CALLDATALOAD PUSH32 0x2E002E8272B07D2ACAF39056F8190B4EE52CDB890D08585D719CB216851A5C2D PUSH32 0x2A3BE893D615F9DCC0BBA35492696A2F70C0A0BD1FD996B2E8FD58B815F3CE6A DUP5 PUSH2 0xD7A JUMP JUMPDEST PUSH2 0xFC8 PUSH1 0x80 DUP9 ADD CALLDATALOAD PUSH32 0x73EA49C7523C089D9C0380A99FD707BE378161F228A0492BF08D83FD140ADF0 PUSH32 0x1643BCEE9C072A11D653641FDFC007B5C191E51D510096BA23170968E951B6E7 DUP5 PUSH2 0xD7A JUMP JUMPDEST PUSH2 0x1018 PUSH1 0xA0 DUP9 ADD CALLDATALOAD PUSH32 0x22B01B586A03F239DF1EB44DF38FCD125D358C7E5353AB47A1D2974549859D63 PUSH32 0x2C15C4EBF40F18A385F786B16B988F173445EBC52CE73A777196A963F3036D4E DUP5 PUSH2 0xD7A JUMP JUMPDEST DUP4 CALLDATALOAD DUP3 MSTORE PUSH32 0x30644E72E131A029B85045B68181585D97816A916871CA8D3C208C16D87CFD47 PUSH1 0x20 DUP6 ADD CALLDATALOAD PUSH32 0x30644E72E131A029B85045B68181585D97816A916871CA8D3C208C16D87CFD47 SUB MOD PUSH1 0x20 DUP4 ADD MSTORE DUP5 CALLDATALOAD PUSH1 0x40 DUP4 ADD MSTORE PUSH1 0x20 DUP6 ADD CALLDATALOAD PUSH1 0x60 DUP4 ADD MSTORE PUSH1 0x40 DUP6 ADD CALLDATALOAD PUSH1 0x80 DUP4 ADD MSTORE PUSH1 0x60 DUP6 ADD CALLDATALOAD PUSH1 0xA0 DUP4 ADD MSTORE PUSH32 0xB14BC01F34AA67F32505334697A143293E2A70A7331673AC94F7923D1FDAF1F PUSH1 0xC0 DUP4 ADD MSTORE PUSH32 0x25803BEFC613CFAB10E24E798A53217728D700E792F34172DD5D0D891F0156C3 PUSH1 0xE0 DUP4 ADD MSTORE PUSH32 0x244BC00EDBA2D0E3C337998163AD332119D1E2E5AA6E7996EBB9B85F4070E3C1 PUSH2 0x100 DUP4 ADD MSTORE PUSH32 0x2B50111D43D8FD69487975E4C001A7B252C1AA885DAACE248A1951B6034877B2 PUSH2 0x120 DUP4 ADD MSTORE PUSH32 0x1ADA24C61AF370AE5179BBECCFB81925047601B6F69D2394CA3BBD20302B6810 PUSH2 0x140 DUP4 ADD MSTORE PUSH31 0x2216099C12F36762C998E454EE2E90430C86EFC60C70F0405F4A25707F073F PUSH2 0x160 DUP4 ADD MSTORE PUSH1 0x0 DUP9 ADD MLOAD PUSH2 0x180 DUP4 ADD MSTORE PUSH1 0x20 PUSH1 0x0 ADD DUP9 ADD MLOAD PUSH2 0x1A0 DUP4 ADD MSTORE PUSH32 0x198E9393920D483A7260BFB731FB5D25F1AA493335A9E71297E485B7AEF312C2 PUSH2 0x1C0 DUP4 ADD MSTORE PUSH32 0x1800DEEF121F1E76426A00665E5C4479674322D4F75EDADD46DEBD5CD992F6ED PUSH2 0x1E0 DUP4 ADD MSTORE PUSH32 0x90689D0585FF075EC9E99AD690C3395BC4B313370B38EF355ACDADCD122975B PUSH2 0x200 DUP4 ADD MSTORE PUSH32 0x12C85EA5DB8C6DEB4AAB71808DCB408FE3D1E7690C43D37B4CE6CC0166FA7DAA PUSH2 0x220 DUP4 ADD MSTORE DUP6 CALLDATALOAD PUSH2 0x240 DUP4 ADD MSTORE PUSH1 0x20 DUP7 ADD CALLDATALOAD PUSH2 0x260 DUP4 ADD MSTORE PUSH32 0x1BDB443CE61EBCF93DAED4215A57E1CEC90CA64973023E31197A112E8CEE72F6 PUSH2 0x280 DUP4 ADD MSTORE PUSH32 0x117E26C4235F42625B3404F2973059814FF260DBA7176D7AAE910F493A8E1FB5 PUSH2 0x2A0 DUP4 ADD MSTORE PUSH32 0x196E247A12F580E36894F256F0C122393489B4C213B3E913250FEEE806CA45FF PUSH2 0x2C0 DUP4 ADD MSTORE PUSH32 0x2FEDFF4E4BBCBF9F1C56E28A060D50EEF5F54E2AAB897F6B465ACD2ED005AE91 PUSH2 0x2E0 DUP4 ADD MSTORE PUSH1 0x20 DUP3 PUSH2 0x300 DUP5 PUSH1 0x8 PUSH2 0x7D0 GAS SUB STATICCALL DUP3 MLOAD DUP2 AND SWAP4 POP POP POP POP SWAP6 SWAP5 POP POP POP POP POP JUMP JUMPDEST PUSH1 0x40 MLOAD PUSH2 0x380 DUP2 ADD PUSH1 0x40 MSTORE PUSH2 0x1313 PUSH1 0x0 DUP5 ADD CALLDATALOAD PUSH2 0xD46 JUMP JUMPDEST PUSH2 0x1320 PUSH1 0x20 DUP5 ADD CALLDATALOAD PUSH2 0xD46 JUMP JUMPDEST PUSH2 0x132D PUSH1 0x40 DUP5 ADD CALLDATALOAD PUSH2 0xD46 JUMP JUMPDEST PUSH2 0x133A PUSH1 0x60 DUP5 ADD CALLDATALOAD PUSH2 0xD46 JUMP JUMPDEST PUSH2 0x1347 PUSH1 0x80 DUP5 ADD CALLDATALOAD PUSH2 0xD46 JUMP JUMPDEST PUSH2 0x1354 PUSH1 0xA0 DUP5 ADD CALLDATALOAD PUSH2 0xD46 JUMP JUMPDEST PUSH2 0x1361 DUP2 DUP5 DUP7 DUP9 DUP11 PUSH2 0xDE5 JUMP JUMPDEST DUP1 PUSH1 0x0 MSTORE PUSH1 0x20 PUSH1 0x0 RETURN JUMPDEST PUSH1 0x0 PUSH1 0x40 MLOAD SWAP1 POP SWAP1 JUMP JUMPDEST PUSH1 0x0 DUP1 REVERT JUMPDEST PUSH1 0x0 DUP1 REVERT JUMPDEST PUSH1 0x0 DUP2 SWAP1 POP SWAP2 SWAP1 POP JUMP JUMPDEST PUSH2 0x1392 DUP2 PUSH2 0x137F JUMP JUMPDEST DUP2 EQ PUSH2 0x139D JUMPI PUSH1 0x0 DUP1 REVERT JUMPDEST POP JUMP JUMPDEST PUSH1 0x0 DUP2 CALLDATALOAD SWAP1 POP PUSH2 0x13AF DUP2 PUSH2 0x1389 JUMP JUMPDEST SWAP3 SWAP2 POP POP JUMP JUMPDEST PUSH1 0x0 PUSH1 0x20 DUP3 DUP5 SUB SLT ISZERO PUSH2 0x13CB JUMPI PUSH2 0x13CA PUSH2 0x1375 JUMP JUMPDEST JUMPDEST PUSH1 0x0 PUSH2 0x13D9 DUP5 DUP3 DUP6 ADD PUSH2 0x13A0 JUMP JUMPDEST SWAP2 POP POP SWAP3 SWAP2 POP POP JUMP JUMPDEST PUSH2 0x13EB DUP2 PUSH2 0x137F JUMP JUMPDEST DUP3 MSTORE POP POP JUMP JUMPDEST PUSH1 0x0 DUP2 ISZERO ISZERO SWAP1 POP SWAP2 SWAP1 POP JUMP JUMPDEST PUSH2 0x1406 DUP2 PUSH2 0x13F1 JUMP JUMPDEST DUP3 MSTORE POP POP JUMP JUMPDEST PUSH1 0x0 PUSH1 0x60 DUP3 ADD SWAP1 POP PUSH2 0x1421 PUSH1 0x0 DUP4 ADD DUP7 PUSH2 0x13E2 JUMP JUMPDEST PUSH2 0x142E PUSH1 0x20 DUP4 ADD DUP6 PUSH2 0x13E2 JUMP JUMPDEST PUSH2 0x143B PUSH1 0x40 DUP4 ADD DUP5 PUSH2 0x13FD JUMP JUMPDEST SWAP5 SWAP4 POP POP POP POP JUMP JUMPDEST PUSH1 0x0 PUSH1 0x20 DUP3 ADD SWAP1 POP PUSH2 0x1458 PUSH1 0x0 DUP4 ADD DUP5 PUSH2 0x13E2 JUMP JUMPDEST SWAP3 SWAP2 POP POP JUMP JUMPDEST PUSH1 0x0 PUSH20 0xFFFFFFFFFFFFFFFFFFFFFFFFFFFFFFFFFFFFFFFF DUP3 AND SWAP1 POP SWAP2 SWAP1 POP JUMP JUMPDEST PUSH1 0x0 PUSH2 0x1489 DUP3 PUSH2 0x145E JUMP JUMPDEST SWAP1 POP SWAP2 SWAP1 POP JUMP JUMPDEST PUSH2 0x1499 DUP2 PUSH2 0x147E JUMP JUMPDEST DUP3 MSTORE POP POP JUMP JUMPDEST PUSH1 0x0 DUP2 MLOAD SWAP1 POP SWAP2 SWAP1 POP JUMP JUMPDEST PUSH1 0x0 DUP3 DUP3 MSTORE PUSH1 0x20 DUP3 ADD SWAP1 POP SWAP3 SWAP2 POP POP JUMP JUMPDEST PUSH1 0x0 JUMPDEST DUP4 DUP2 LT ISZERO PUSH2 0x14D9 JUMPI DUP1 DUP3 ADD MLOAD DUP2 DUP5 ADD MSTORE PUSH1 0x20 DUP2 ADD SWAP1 POP PUSH2 0x14BE JUMP JUMPDEST PUSH1 0x0 DUP5 DUP5 ADD MSTORE POP POP POP POP JUMP JUMPDEST PUSH1 0x0 PUSH1 0x1F NOT PUSH1 0x1F DUP4 ADD AND SWAP1 POP SWAP2 SWAP1 POP JUMP JUMPDEST PUSH1 0x0 PUSH2 0x1501 DUP3 PUSH2 0x149F JUMP JUMPDEST PUSH2 0x150B DUP2 DUP6 PUSH2 0x14AA JUMP JUMPDEST SWAP4 POP PUSH2 0x151B DUP2 DUP6 PUSH1 0x20 DUP7 ADD PUSH2 0x14BB JUMP JUMPDEST PUSH2 0x1524 DUP2 PUSH2 0x14E5 JUMP JUMPDEST DUP5 ADD SWAP2 POP POP SWAP3 SWAP2 POP POP JUMP JUMPDEST PUSH1 0x0 PUSH2 0x100 DUP3 ADD SWAP1 POP PUSH2 0x1545 PUSH1 0x0 DUP4 ADD DUP12 PUSH2 0x13E2 JUMP JUMPDEST PUSH2 0x1552 PUSH1 0x20 DUP4 ADD DUP11 PUSH2 0x1490 JUMP JUMPDEST PUSH2 0x155F PUSH1 0x40 DUP4 ADD DUP10 PUSH2 0x13E2 JUMP JUMPDEST DUP2 DUP2 SUB PUSH1 0x60 DUP4 ADD MSTORE PUSH2 0x1571 DUP2 DUP9 PUSH2 0x14F6 JUMP JUMPDEST SWAP1 POP PUSH2 0x1580 PUSH1 0x80 DUP4 ADD DUP8 PUSH2 0x13E2 JUMP JUMPDEST DUP2 DUP2 SUB PUSH1 0xA0 DUP4 ADD MSTORE PUSH2 0x1592 DUP2 DUP7 PUSH2 0x14F6 JUMP JUMPDEST SWAP1 POP PUSH2 0x15A1 PUSH1 0xC0 DUP4 ADD DUP6 PUSH2 0x13FD JUMP JUMPDEST PUSH2 0x15AE PUSH1 0xE0 DUP4 ADD DUP5 PUSH2 0x13FD JUMP JUMPDEST SWAP10 SWAP9 POP POP POP POP POP POP POP POP POP JUMP JUMPDEST PUSH1 0x0 PUSH1 0x20 DUP3 ADD SWAP1 POP PUSH2 0x15D0 PUSH1 0x0 DUP4 ADD DUP5 PUSH2 0x1490 JUMP JUMPDEST SWAP3 SWAP2 POP POP JUMP JUMPDEST PUSH1 0x0 DUP1 REVERT JUMPDEST PUSH1 0x0 DUP2 SWAP1 POP DUP3 PUSH1 0x20 PUSH1 0x2 MUL DUP3 ADD GT ISZERO PUSH2 0x15F7 JUMPI PUSH2 0x15F6 PUSH2 0x15D6 JUMP JUMPDEST JUMPDEST SWAP3 SWAP2 POP POP JUMP JUMPDEST PUSH1 0x0 DUP2 SWAP1 POP DUP3 PUSH1 0x40 PUSH1 0x2 MUL DUP3 ADD GT ISZERO PUSH2 0x1619 JUMPI PUSH2 0x1618 PUSH2 0x15D6 JUMP JUMPDEST JUMPDEST SWAP3 SWAP2 POP POP JUMP JUMPDEST PUSH1 0x0 DUP2 SWAP1 POP DUP3 PUSH1 0x20 PUSH1 0x6 MUL DUP3 ADD GT ISZERO PUSH2 0x163B JUMPI PUSH2 0x163A PUSH2 0x15D6 JUMP JUMPDEST JUMPDEST SWAP3 SWAP2 POP POP JUMP JUMPDEST PUSH1 0x0 DUP1 PUSH1 0x0 DUP1 PUSH2 0x1C0 DUP6 DUP8 SUB SLT ISZERO PUSH2 0x165C JUMPI PUSH2 0x165B PUSH2 0x1375 JUMP JUMPDEST JUMPDEST PUSH1 0x0 PUSH2 0x166A DUP8 DUP3 DUP9 ADD PUSH2 0x15DB JUMP JUMPDEST SWAP5 POP POP PUSH1 0x40 PUSH2 0x167B DUP8 DUP3 DUP9 ADD PUSH2 0x15FD JUMP JUMPDEST SWAP4 POP POP PUSH1 0xC0 PUSH2 0x168C DUP8 DUP3 DUP9 ADD PUSH2 0x15DB JUMP JUMPDEST SWAP3 POP POP PUSH2 0x100 PUSH2 0x169E DUP8 DUP3 DUP9 ADD PUSH2 0x161F JUMP JUMPDEST SWAP2 POP POP SWAP3 SWAP6 SWAP2 SWAP5 POP SWAP3 POP JUMP JUMPDEST PUSH1 0x0 PUSH1 0x20 DUP3 ADD SWAP1 POP PUSH2 0x16BF PUSH1 0x0 DUP4 ADD DUP5 PUSH2 0x13FD JUMP JUMPDEST SWAP3 SWAP2 POP POP JUMP JUMPDEST PUSH1 0x0 DUP1 REVERT JUMPDEST PUSH1 0x0 DUP1 REVERT JUMPDEST PUSH32 0x4E487B7100000000000000000000000000000000000000000000000000000000 PUSH1 0x0 MSTORE PUSH1 0x41 PUSH1 0x4 MSTORE PUSH1 0x24 PUSH1 0x0 REVERT JUMPDEST PUSH2 0x1707 DUP3 PUSH2 0x14E5 JUMP JUMPDEST DUP2 ADD DUP2 DUP2 LT PUSH8 0xFFFFFFFFFFFFFFFF DUP3 GT OR ISZERO PUSH2 0x1726 JUMPI PUSH2 0x1725 PUSH2 0x16CF JUMP JUMPDEST JUMPDEST DUP1 PUSH1 0x40 MSTORE POP POP POP JUMP JUMPDEST PUSH1 0x0 PUSH2 0x1739 PUSH2 0x136B JUMP JUMPDEST SWAP1 POP PUSH2 0x1745 DUP3 DUP3 PUSH2 0x16FE JUMP JUMPDEST SWAP2 SWAP1 POP JUMP JUMPDEST PUSH1 0x0 PUSH8 0xFFFFFFFFFFFFFFFF DUP3 GT ISZERO PUSH2 0x1765 JUMPI PUSH2 0x1764 PUSH2 0x16CF JUMP JUMPDEST JUMPDEST PUSH2 0x176E DUP3 PUSH2 0x14E5 JUMP JUMPDEST SWAP1 POP PUSH1 0x20 DUP2 ADD SWAP1 POP SWAP2 SWAP1 POP JUMP JUMPDEST DUP3 DUP2 DUP4 CALLDATACOPY PUSH1 0x0 DUP4 DUP4 ADD MSTORE POP POP POP JUMP JUMPDEST PUSH1 0x0 PUSH2 0x179D PUSH2 0x1798 DUP5 PUSH2 0x174A JUMP JUMPDEST PUSH2 0x172F JUMP JUMPDEST SWAP1 POP DUP3 DUP2 MSTORE PUSH1 0x20 DUP2 ADD DUP5 DUP5 DUP5 ADD GT ISZERO PUSH2 0x17B9 JUMPI PUSH2 0x17B8 PUSH2 0x16CA JUMP JUMPDEST JUMPDEST PUSH2 0x17C4 DUP5 DUP3 DUP6 PUSH2 0x177B JUMP JUMPDEST POP SWAP4 SWAP3 POP POP POP JUMP JUMPDEST PUSH1 0x0 DUP3 PUSH1 0x1F DUP4 ADD SLT PUSH2 0x17E1 JUMPI PUSH2 0x17E0 PUSH2 0x16C5 JUMP JUMPDEST JUMPDEST DUP2 CALLDATALOAD PUSH2 0x17F1 DUP5 DUP3 PUSH1 0x20 DUP7 ADD PUSH2 0x178A JUMP JUMPDEST SWAP2 POP POP SWAP3 SWAP2 POP POP JUMP JUMPDEST PUSH2 0x1803 DUP2 PUSH2 0x13F1 JUMP JUMPDEST DUP2 EQ PUSH2 0x180E JUMPI PUSH1 0x0 DUP1 REVERT JUMPDEST POP JUMP JUMPDEST PUSH1 0x0 DUP2 CALLDATALOAD SWAP1 POP PUSH2 0x1820 DUP2 PUSH2 0x17FA JUMP JUMPDEST SWAP3 SWAP2 POP POP JUMP JUMPDEST PUSH1 0x0 DUP1 PUSH1 0x0 DUP1 PUSH1 0x0 PUSH1 0xA0 DUP7 DUP9 SUB SLT ISZERO PUSH2 0x1842 JUMPI PUSH2 0x1841 PUSH2 0x1375 JUMP JUMPDEST JUMPDEST PUSH1 0x0 PUSH2 0x1850 DUP9 DUP3 DUP10 ADD PUSH2 0x13A0 JUMP JUMPDEST SWAP6 POP POP PUSH1 0x20 DUP7 ADD CALLDATALOAD PUSH8 0xFFFFFFFFFFFFFFFF DUP2 GT ISZERO PUSH2 0x1871 JUMPI PUSH2 0x1870 PUSH2 0x137A JUMP JUMPDEST JUMPDEST PUSH2 0x187D DUP9 DUP3 DUP10 ADD PUSH2 0x17CC JUMP JUMPDEST SWAP5 POP POP PUSH1 0x40 PUSH2 0x188E DUP9 DUP3 DUP10 ADD PUSH2 0x13A0 JUMP JUMPDEST SWAP4 POP POP PUSH1 0x60 DUP7 ADD CALLDATALOAD PUSH8 0xFFFFFFFFFFFFFFFF DUP2 GT ISZERO PUSH2 0x18AF JUMPI PUSH2 0x18AE PUSH2 0x137A JUMP JUMPDEST JUMPDEST PUSH2 0x18BB DUP9 DUP3 DUP10 ADD PUSH2 0x17CC JUMP JUMPDEST SWAP3 POP POP PUSH1 0x80 PUSH2 0x18CC DUP9 DUP3 DUP10 ADD PUSH2 0x1811 JUMP JUMPDEST SWAP2 POP POP SWAP3 SWAP6 POP SWAP3 SWAP6 SWAP1 SWAP4 POP JUMP JUMPDEST PUSH1 0x0 PUSH2 0x120 DUP3 ADD SWAP1 POP PUSH2 0x18EF PUSH1 0x0 DUP4 ADD DUP13 PUSH2 0x13E2 JUMP JUMPDEST PUSH2 0x18FC PUSH1 0x20 DUP4 ADD DUP12 PUSH2 0x1490 JUMP JUMPDEST PUSH2 0x1909 PUSH1 0x40 DUP4 ADD DUP11 PUSH2 0x13E2 JUMP JUMPDEST DUP2 DUP2 SUB PUSH1 0x60 DUP4 ADD MSTORE PUSH2 0x191B DUP2 DUP10 PUSH2 0x14F6 JUMP JUMPDEST SWAP1 POP PUSH2 0x192A PUSH1 0x80 DUP4 ADD DUP9 PUSH2 0x13E2 JUMP JUMPDEST DUP2 DUP2 SUB PUSH1 0xA0 DUP4 ADD MSTORE PUSH2 0x193C DUP2 DUP8 PUSH2 0x14F6 JUMP JUMPDEST SWAP1 POP PUSH2 0x194B PUSH1 0xC0 DUP4 ADD DUP7 PUSH2 0x13E2 JUMP JUMPDEST DUP2 DUP2 SUB PUSH1 0xE0 DUP4 ADD MSTORE PUSH2 0x195D DUP2 DUP6 PUSH2 0x14F6 JUMP JUMPDEST SWAP1 POP PUSH2 0x196D PUSH2 0x100 DUP4 ADD DUP5 PUSH2 0x13FD JUMP JUMPDEST SWAP11 SWAP10 POP POP POP POP POP POP POP POP POP POP JUMP JUMPDEST PUSH1 0x0 DUP1 PUSH1 0x0 DUP1 PUSH1 0x0 DUP1 PUSH1 0xC0 DUP8 DUP10 SUB SLT ISZERO PUSH2 0x1998 JUMPI PUSH2 0x1997 PUSH2 0x1375 JUMP JUMPDEST JUMPDEST PUSH1 0x0 PUSH2 0x19A6 DUP10 DUP3 DUP11 ADD PUSH2 0x13A0 JUMP JUMPDEST SWAP7 POP POP PUSH1 0x20 DUP8 ADD CALLDATALOAD PUSH8 0xFFFFFFFFFFFFFFFF DUP2 GT ISZERO PUSH2 0x19C7 JUMPI PUSH2 0x19C6 PUSH2 0x137A JUMP JUMPDEST JUMPDEST PUSH2 0x19D3 DUP10 DUP3 DUP11 ADD PUSH2 0x17CC JUMP JUMPDEST SWAP6 POP POP PUSH1 0x40 PUSH2 0x19E4 DUP10 DUP3 DUP11 ADD PUSH2 0x13A0 JUMP JUMPDEST SWAP5 POP POP PUSH1 0x60 DUP8 ADD CALLDATALOAD PUSH8 0xFFFFFFFFFFFFFFFF DUP2 GT ISZERO PUSH2 0x1A05 JUMPI PUSH2 0x1A04 PUSH2 0x137A JUMP JUMPDEST JUMPDEST PUSH2 0x1A11 DUP10 DUP3 DUP11 ADD PUSH2 0x17CC JUMP JUMPDEST SWAP4 POP POP PUSH1 0x80 PUSH2 0x1A22 DUP10 DUP3 DUP11 ADD PUSH2 0x13A0 JUMP JUMPDEST SWAP3 POP POP PUSH1 0xA0 DUP8 ADD CALLDATALOAD PUSH8 0xFFFFFFFFFFFFFFFF DUP2 GT ISZERO PUSH2 0x1A43 JUMPI PUSH2 0x1A42 PUSH2 0x137A JUMP JUMPDEST JUMPDEST PUSH2 0x1A4F DUP10 DUP3 DUP11 ADD PUSH2 0x17CC JUMP JUMPDEST SWAP2 POP POP SWAP3 SWAP6 POP SWAP3 SWAP6 POP SWAP3 SWAP6 JUMP JUMPDEST PUSH32 0x4E487B7100000000000000000000000000000000000000000000000000000000 PUSH1 0x0 MSTORE PUSH1 0x22 PUSH1 0x4 MSTORE PUSH1 0x24 PUSH1 0x0 REVERT JUMPDEST PUSH1 0x0 PUSH1 0x2 DUP3 DIV SWAP1 POP PUSH1 0x1 DUP3 AND DUP1 PUSH2 0x1AA3 JUMPI PUSH1 0x7F DUP3 AND SWAP2 POP JUMPDEST PUSH1 0x20 DUP3 LT DUP2 SUB PUSH2 0x1AB6 JUMPI PUSH2 0x1AB5 PUSH2 0x1A5C JUMP JUMPDEST JUMPDEST POP SWAP2 SWAP1 POP JUMP JUMPDEST PUSH32 0x4C6F616E206973206E6F7420617070726F766564000000000000000000000000 PUSH1 0x0 DUP3 ADD MSTORE POP JUMP JUMPDEST PUSH1 0x0 PUSH2 0x1AF2 PUSH1 0x14 DUP4 PUSH2 0x14AA JUMP JUMPDEST SWAP2 POP PUSH2 0x1AFD DUP3 PUSH2 0x1ABC JUMP JUMPDEST PUSH1 0x20 DUP3 ADD SWAP1 POP SWAP2 SWAP1 POP JUMP JUMPDEST PUSH1 0x0 PUSH1 0x20 DUP3 ADD SWAP1 POP DUP2 DUP2 SUB PUSH1 0x0 DUP4 ADD MSTORE PUSH2 0x1B21 DUP2 PUSH2 0x1AE5 JUMP JUMPDEST SWAP1 POP SWAP2 SWAP1 POP JUMP JUMPDEST PUSH32 0x4C6F616E20616C72656164792072657061696400000000000000000000000000 PUSH1 0x0 DUP3 ADD MSTORE POP JUMP JUMPDEST PUSH1 0x0 PUSH2 0x1B5E PUSH1 0x13 DUP4 PUSH2 0x14AA JUMP JUMPDEST SWAP2 POP PUSH2 0x1B69 DUP3 PUSH2 0x1B28 JUMP JUMPDEST PUSH1 0x20 DUP3 ADD SWAP1 POP SWAP2 SWAP1 POP JUMP JUMPDEST PUSH1 0x0 PUSH1 0x20 DUP3 ADD SWAP1 POP DUP2 DUP2 SUB PUSH1 0x0 DUP4 ADD MSTORE PUSH2 0x1B8D DUP2 PUSH2 0x1B51 JUMP JUMPDEST SWAP1 POP SWAP2 SWAP1 POP JUMP JUMPDEST PUSH32 0x4C6F616E206973206E6F74206163746976650000000000000000000000000000 PUSH1 0x0 DUP3 ADD MSTORE POP JUMP JUMPDEST PUSH1 0x0 PUSH2 0x1BCA PUSH1 0x12 DUP4 PUSH2 0x14AA JUMP JUMPDEST SWAP2 POP PUSH2 0x1BD5 DUP3 PUSH2 0x1B94 JUMP JUMPDEST PUSH1 0x20 DUP3 ADD SWAP1 POP SWAP2 SWAP1 POP JUMP JUMPDEST PUSH1 0x0 PUSH1 0x20 DUP3 ADD SWAP1 POP DUP2 DUP2 SUB PUSH1 0x0 DUP4 ADD MSTORE PUSH2 0x1BF9 DUP2 PUSH2 0x1BBD JUMP JUMPDEST SWAP1 POP SWAP2 SWAP1 POP JUMP JUMPDEST PUSH32 0x4E487B7100000000000000000000000000000000000000000000000000000000 PUSH1 0x0 MSTORE PUSH1 0x11 PUSH1 0x4 MSTORE PUSH1 0x24 PUSH1 0x0 REVERT JUMPDEST PUSH1 0x0 PUSH2 0x1C3A DUP3 PUSH2 0x137F JUMP JUMPDEST SWAP2 POP PUSH32 0xFFFFFFFFFFFFFFFFFFFFFFFFFFFFFFFFFFFFFFFFFFFFFFFFFFFFFFFFFFFFFFFF DUP3 SUB PUSH2 0x1C6C JUMPI PUSH2 0x1C6B PUSH2 0x1C00 JUMP JUMPDEST JUMPDEST PUSH1 0x1 DUP3 ADD SWAP1 POP SWAP2 SWAP1 POP JUMP JUMPDEST PUSH1 0x0 DUP2 SWAP1 POP DUP2 PUSH1 0x0 MSTORE PUSH1 0x20 PUSH1 0x0 KECCAK256 SWAP1 POP SWAP2 SWAP1 POP JUMP JUMPDEST PUSH1 0x0 PUSH1 0x20 PUSH1 0x1F DUP4 ADD DIV SWAP1 POP SWAP2 SWAP1 POP JUMP JUMPDEST PUSH1 0x0 DUP3 DUP3 SHL SWAP1 POP SWAP3 SWAP2 POP POP JUMP JUMPDEST PUSH1 0x0 PUSH1 0x8 DUP4 MUL PUSH2 0x1CD9 PUSH32 0xFFFFFFFFFFFFFFFFFFFFFFFFFFFFFFFFFFFFFFFFFFFFFFFFFFFFFFFFFFFFFFFF DUP3 PUSH2 0x1C9C JUMP JUMPDEST PUSH2 0x1CE3 DUP7 DUP4 PUSH2 0x1C9C JUMP JUMPDEST SWAP6 POP DUP1 NOT DUP5 AND SWAP4 POP DUP1 DUP7 AND DUP5 OR SWAP3 POP POP POP SWAP4 SWAP3 POP POP POP JUMP JUMPDEST PUSH1 0x0 DUP2 SWAP1 POP SWAP2 SWAP1 POP JUMP JUMPDEST PUSH1 0x0 PUSH2 0x1D20 PUSH2 0x1D1B PUSH2 0x1D16 DUP5 PUSH2 0x137F JUMP JUMPDEST PUSH2 0x1CFB JUMP JUMPDEST PUSH2 0x137F JUMP JUMPDEST SWAP1 POP SWAP2 SWAP1 POP JUMP JUMPDEST PUSH1 0x0 DUP2 SWAP1 POP SWAP2 SWAP1 POP JUMP JUMPDEST PUSH2 0x1D3A DUP4 PUSH2 0x1D05 JUMP JUMPDEST PUSH2 0x1D4E PUSH2 0x1D46 DUP3 PUSH2 0x1D27 JUMP JUMPDEST DUP5 DUP5 SLOAD PUSH2 0x1CA9 JUMP JUMPDEST DUP3 SSTORE POP POP POP POP JUMP JUMPDEST PUSH1 0x0 SWAP1 JUMP JUMPDEST PUSH2 0x1D63 PUSH2 0x1D56 JUMP JUMPDEST PUSH2 0x1D6E DUP2 DUP5 DUP5 PUSH2 0x1D31 JUMP JUMPDEST POP POP POP JUMP JUMPDEST JUMPDEST DUP2 DUP2 LT ISZERO PUSH2 0x1D92 JUMPI PUSH2 0x1D87 PUSH1 0x0 DUP3 PUSH2 0x1D5B JUMP JUMPDEST PUSH1 0x1 DUP2 ADD SWAP1 POP PUSH2 0x1D74 JUMP JUMPDEST POP POP JUMP JUMPDEST PUSH1 0x1F DUP3 GT ISZERO PUSH2 0x1DD7 JUMPI PUSH2 0x1DA8 DUP2 PUSH2 0x1C77 JUMP JUMPDEST PUSH2 0x1DB1 DUP5 PUSH2 0x1C8C JUMP JUMPDEST DUP2 ADD PUSH1 0x20 DUP6 LT ISZERO PUSH2 0x1DC0 JUMPI DUP2 SWAP1 POP JUMPDEST PUSH2 0x1DD4 PUSH2 0x1DCC DUP6 PUSH2 0x1C8C JUMP JUMPDEST DUP4 ADD DUP3 PUSH2 0x1D73 JUMP JUMPDEST POP POP JUMPDEST POP POP POP JUMP JUMPDEST PUSH1 0x0 DUP3 DUP3 SHR SWAP1 POP SWAP3 SWAP2 POP POP JUMP JUMPDEST PUSH1 0x0 PUSH2 0x1DFA PUSH1 0x0 NOT DUP5 PUSH1 0x8 MUL PUSH2 0x1DDC JUMP JUMPDEST NOT DUP1 DUP4 AND SWAP2 POP POP SWAP3 SWAP2 POP POP JUMP JUMPDEST PUSH1 0x0 PUSH2 0x1E13 DUP4 DUP4 PUSH2 0x1DE9 JUMP JUMPDEST SWAP2 POP DUP3 PUSH1 0x2 MUL DUP3 OR SWAP1 POP SWAP3 SWAP2 POP POP JUMP JUMPDEST PUSH2 0x1E2C DUP3 PUSH2 0x149F JUMP JUMPDEST PUSH8 0xFFFFFFFFFFFFFFFF DUP2 GT ISZERO PUSH2 0x1E45 JUMPI PUSH2 0x1E44 PUSH2 0x16CF JUMP JUMPDEST JUMPDEST PUSH2 0x1E4F DUP3 SLOAD PUSH2 0x1A8B JUMP JUMPDEST PUSH2 0x1E5A DUP3 DUP3 DUP6 PUSH2 0x1D96 JUMP JUMPDEST PUSH1 0x0 PUSH1 0x20 SWAP1 POP PUSH1 0x1F DUP4 GT PUSH1 0x1 DUP2 EQ PUSH2 0x1E8D JUMPI PUSH1 0x0 DUP5 ISZERO PUSH2 0x1E7B JUMPI DUP3 DUP8 ADD MLOAD SWAP1 POP JUMPDEST PUSH2 0x1E85 DUP6 DUP3 PUSH2 0x1E07 JUMP JUMPDEST DUP7 SSTORE POP PUSH2 0x1EED JUMP JUMPDEST PUSH1 0x1F NOT DUP5 AND PUSH2 0x1E9B DUP7 PUSH2 0x1C77 JUMP JUMPDEST PUSH1 0x0 JUMPDEST DUP3 DUP2 LT ISZERO PUSH2 0x1EC3 JUMPI DUP5 DUP10 ADD MLOAD DUP3 SSTORE PUSH1 0x1 DUP3 ADD SWAP2 POP PUSH1 0x20 DUP6 ADD SWAP5 POP PUSH1 0x20 DUP2 ADD SWAP1 POP PUSH2 0x1E9E JUMP JUMPDEST DUP7 DUP4 LT ISZERO PUSH2 0x1EE0 JUMPI DUP5 DUP10 ADD MLOAD PUSH2 0x1EDC PUSH1 0x1F DUP10 AND DUP3 PUSH2 0x1DE9 JUMP JUMPDEST DUP4 SSTORE POP JUMPDEST PUSH1 0x1 PUSH1 0x2 DUP9 MUL ADD DUP9 SSTORE POP POP POP JUMPDEST POP POP POP POP POP POP JUMP JUMPDEST PUSH32 0x4F6E6C79206C656E6465722063616E20617070726F7665000000000000000000 PUSH1 0x0 DUP3 ADD MSTORE POP JUMP JUMPDEST PUSH1 0x0 PUSH2 0x1F2B PUSH1 0x17 DUP4 PUSH2 0x14AA JUMP JUMPDEST SWAP2 POP PUSH2 0x1F36 DUP3 PUSH2 0x1EF5 JUMP JUMPDEST PUSH1 0x20 DUP3 ADD SWAP1 POP SWAP2 SWAP1 POP JUMP JUMPDEST PUSH1 0x0 PUSH1 0x20 DUP3 ADD SWAP1 POP DUP2 DUP2 SUB PUSH1 0x0 DUP4 ADD MSTORE PUSH2 0x1F5A DUP2 PUSH2 0x1F1E JUMP JUMPDEST SWAP1 POP SWAP2 SWAP1 POP JUMP JUMPDEST PUSH32 0x5468726573686F6C64206E6F74206D6574000000000000000000000000000000 PUSH1 0x0 DUP3 ADD MSTORE POP JUMP JUMPDEST PUSH1 0x0 PUSH2 0x1F97 PUSH1 0x11 DUP4 PUSH2 0x14AA JUMP JUMPDEST SWAP2 POP PUSH2 0x1FA2 DUP3 PUSH2 0x1F61 JUMP JUMPDEST PUSH1 0x20 DUP3 ADD SWAP1 POP SWAP2 SWAP1 POP JUMP JUMPDEST PUSH1 0x0 PUSH1 0x20 DUP3 ADD SWAP1 POP DUP2 DUP2 SUB PUSH1 0x0 DUP4 ADD MSTORE PUSH2 0x1FC6 DUP2 PUSH2 0x1F8A JUMP JUMPDEST SWAP1 POP SWAP2 SWAP1 POP JUMP INVALID LOG2 PUSH5 0x6970667358 0x22 SLT KECCAK256 LOG3 0xC4 EXTCODECOPY PUSH12 0xFE82BF5EFCB6DDB3DE12AA47 CALLCODE 0xAC TLOAD 0xC0 PUSH6 0xC522AFEA324E MSTORE PUSH15 0x4A891964736F6C634300081C003300 "},"methodIdentifiers":{"approveBorrowRequest(uint256)":"e12003e3","approvedBorrowRequests(uint256)":"1ebde2c5","borrowRequestCounter()":"2afc153a","borrowRequests(uint256)":"50d282fc","createBorrowRequest(uint256,string,uint256,string,bool)":"ba5f1fb4","createLoan(uint256,string,uint256,string,uint256,string)":"e707ff81","loanCounter()":"34d9289e","loans(uint256)":"e1ec3c68","owner()":"8da5cb5b","repayLoan(uint256)":"ab7b1c89","verifyLoanThresholdPassed(uint256[2],uint256[2][2],uint256[2],uint256[6])":"9968c24d","verifyProof(uint256[2],uint256[2][2],uint256[2],uint256[6])":"f398789b"}}}}}