{"abi":[{"type":"constructor","inputs":[{"name":"_avsDirectory","type":"address","internalType":"address"}],"stateMutability":"nonpayable"},{"type":"function","name":"allTaskHashes","inputs":[{"name":"","type":"uint32","internalType":"uint32"}],"outputs":[{"name":"","type":"bytes32","internalType":"bytes32"}],"stateMutability":"view"},{"type":"function","name":"allTaskResponses","inputs":[{"name":"","type":"address","internalType":"address"},{"name":"","type":"uint32","internalType":"uint32"}],"outputs":[{"name":"","type":"bytes","internalType":"bytes"}],"stateMutability":"view"},{"type":"function","name":"avsDirectory","inputs":[],"outputs":[{"name":"","type":"address","internalType":"address"}],"stateMutability":"view"},{"type":"function","name":"createNewTask","inputs":[{"name":"query","type":"string","internalType":"string"}],"outputs":[{"name":"","type":"tuple","internalType":"struct AgentServiceManager.Task","components":[{"name":"query","type":"string","internalType":"string"},{"name":"taskCreatedBlock","type":"uint32","internalType":"uint32"}]}],"stateMutability":"nonpayable"},{"type":"function","name":"deregisterOperatorFromAVS","inputs":[{"name":"operator","type":"address","internalType":"address"}],"outputs":[],"stateMutability":"nonpayable"},{"type":"function","name":"latestTaskNum","inputs":[],"outputs":[{"name":"","type":"uint32","internalType":"uint32"}],"stateMutability":"view"},{"type":"function","name":"operatorRegistered","inputs":[{"name":"","type":"address","internalType":"address"}],"outputs":[{"name":"","type":"bool","internalType":"bool"}],"stateMutability":"view"},{"type":"function","name":"registerOperatorToAVS","inputs":[{"name":"operator","type":"address","internalType":"address"},{"name":"operatorSignature","type":"tuple","internalType":"struct ISignatureUtils.SignatureWithSaltAndExpiry","components":[{"name":"signature","type":"bytes","internalType":"bytes"},{"name":"salt","type":"bytes32","internalType":"bytes32"},{"name":"expiry","type":"uint256","internalType":"uint256"}]}],"outputs":[],"stateMutability":"nonpayable"},{"type":"function","name":"respondToTask","inputs":[{"name":"task","type":"tuple","internalType":"struct AgentServiceManager.Task","components":[{"name":"query","type":"string","internalType":"string"},{"name":"taskCreatedBlock","type":"uint32","internalType":"uint32"}]},{"name":"referenceTaskIndex","type":"uint32","internalType":"uint32"},{"name":"response","type":"string","internalType":"string"},{"name":"signature","type":"bytes","internalType":"bytes"}],"outputs":[],"stateMutability":"nonpayable"},{"type":"event","name":"NewTaskCreated","inputs":[{"name":"taskIndex","type":"uint32","indexed":true,"internalType":"uint32"},{"name":"task","type":"tuple","indexed":false,"internalType":"struct AgentServiceManager.Task","components":[{"name":"query","type":"string","internalType":"string"},{"name":"taskCreatedBlock","type":"uint32","internalType":"uint32"}]}],"anonymous":false},{"type":"event","name":"TaskResponded","inputs":[{"name":"taskIndex","type":"uint32","indexed":true,"internalType":"uint32"},{"name":"task","type":"tuple","indexed":false,"internalType":"struct AgentServiceManager.Task","components":[{"name":"query","type":"string","internalType":"string"},{"name":"taskCreatedBlock","type":"uint32","internalType":"uint32"}]},{"name":"response","type":"string","indexed":false,"internalType":"string"},{"name":"operator","type":"address","indexed":false,"internalType":"address"}],"anonymous":false}],"bytecode":{"object":"0x60a0604052348015600e575f80fd5b50604051610f1a380380610f1a833981016040819052602b91603b565b6001600160a01b03166080526066565b5f60208284031215604a575f80fd5b81516001600160a01b0381168114605f575f80fd5b9392505050565b608051610e8f61008b5f395f818160cb015281816102c301526103e60152610e8f5ff3fe608060405234801561000f575f80fd5b5060043610610090575f3560e01c80639926ee7d116100635780639926ee7d14610149578063a364f4da1461015e578063c20bab7f14610171578063d486b38514610191578063ec7fbb31146101a4575f80fd5b80632d89f6fc146100945780636b3aa72e146100c657806385edf874146101055780638b00ce7c14610125575b5f80fd5b6100b36100a2366004610835565b60026020525f908152604090205481565b6040519081526020015b60405180910390f35b6100ed7f000000000000000000000000000000000000000000000000000000000000000081565b6040516001600160a01b0390911681526020016100bd565b6101186101133660046108fa565b6101d6565b6040516100bd9190610962565b5f546101349063ffffffff1681565b60405163ffffffff90911681526020016100bd565b61015c6101573660046109af565b6102ac565b005b61015c61016c366004610a60565b610350565b61018461017f366004610a79565b61045d565b6040516100bd9190610aaa565b61015c61019f366004610abc565b6104ff565b6101c66101b2366004610a60565b60016020525f908152604090205460ff1681565b60405190151581526020016100bd565b604080518082018252606081525f602080830191909152825180840184528481524363ffffffff1681830152925191929161021391839101610962565b60408051601f1981840301815282825280516020918201205f805463ffffffff9081168252600290935292832055905416907f58180a6a0403a63c2b5ce4b85d129d46a80d37851b2216bd0a98b59e7309b84790610272908490610962565b60405180910390a25f5461028d9063ffffffff166001610b5f565b5f805463ffffffff191663ffffffff9290921691909117905592915050565b604051639926ee7d60e01b81526001600160a01b037f00000000000000000000000000000000000000000000000000000000000000001690639926ee7d906102fa9085908590600401610b8d565b5f604051808303815f87803b158015610311575f80fd5b505af1158015610323573d5f803e3d5ffd5b5050506001600160a01b039092165f908152600160208190526040909120805460ff191690911790555050565b335f9081526001602052604090205460ff166103b35760405162461bcd60e51b815260206004820152601b60248201527f4f70657261746f72206d757374206265207468652063616c6c6572000000000060448201526064015b60405180910390fd5b336001600160a01b038216146103c7575f80fd5b6040516351b27a6d60e11b81526001600160a01b0382811660048301527f0000000000000000000000000000000000000000000000000000000000000000169063a364f4da906024015f604051808303815f87803b158015610427575f80fd5b505af1158015610439573d5f803e3d5ffd5b505050506001600160a01b03165f908152600160205260409020805460ff19169055565b600360209081525f92835260408084209091529082529020805461048090610bd7565b80601f01602080910402602001604051908101604052809291908181526020018280546104ac90610bd7565b80156104f75780601f106104ce576101008083540402835291602001916104f7565b820191905f5260205f20905b8154815290600101906020018083116104da57829003601f168201915b505050505081565b335f9081526001602052604090205460ff1661055d5760405162461bcd60e51b815260206004820152601b60248201527f4f70657261746f72206d757374206265207468652063616c6c6572000000000060448201526064016103aa565b63ffffffff83165f9081526002602090815260409182902054915161058491879101610c95565b604051602081830303815290604052805190602001201461060d5760405162461bcd60e51b815260206004820152603d60248201527f737570706c696564207461736b20646f6573206e6f74206d617463682074686560448201527f206f6e65207265636f7264656420696e2074686520636f6e747261637400000060648201526084016103aa565b335f90815260036020908152604080832063ffffffff871684529091529020805461063790610bd7565b1590506106995760405162461bcd60e51b815260206004820152602a60248201527f4f70657261746f722068617320616c726561647920726573706f6e64656420746044820152696f20746865207461736b60b01b60648201526084016103aa565b5f826106a58680610ca7565b6040516020016106b793929190610cf1565b6040516020818303038152906040528051906020012090505f6106fe826020527b19457468657265756d205369676e6564204d6573736167653a0a33325f52603c60042090565b90503361070b8285610791565b6001600160a01b03161461071d575f80fd5b335f90815260036020908152604080832063ffffffff8916845290915290206107468482610d61565b508463ffffffff167f825f266d26f849555c4e816a5b281c0840821222f2677a97a489b5d8335d364987863360405161078193929190610e1c565b60405180910390a2505050505050565b5f6040518251604081146107ad57604181146107ce5750610809565b604084015160ff81901c601b016020526001600160ff1b03166060526107e1565b60608401515f1a60205260408401516060525b50835f5260208301516040526020600160805f60015afa5191505f606052806040523d610816575b638baa579f5f526004601cfd5b5092915050565b803563ffffffff81168114610830575f80fd5b919050565b5f60208284031215610845575f80fd5b61084e8261081d565b9392505050565b634e487b7160e01b5f52604160045260245ffd5b5f82601f830112610878575f80fd5b8135602083015f8067ffffffffffffffff84111561089857610898610855565b50604051601f19601f85018116603f0116810181811067ffffffffffffffff821117156108c7576108c7610855565b6040528381529050808284018710156108de575f80fd5b838360208301375f602085830101528094505050505092915050565b5f6020828403121561090a575f80fd5b813567ffffffffffffffff811115610920575f80fd5b61092c84828501610869565b949350505050565b5f81518084528060208401602086015e5f602082860101526020601f19601f83011685010191505092915050565b602081525f82516040602084015261097d6060840182610934565b905063ffffffff60208501511660408401528091505092915050565b80356001600160a01b0381168114610830575f80fd5b5f80604083850312156109c0575f80fd5b6109c983610999565b9150602083013567ffffffffffffffff8111156109e4575f80fd5b8301606081860312156109f5575f80fd5b6040516060810167ffffffffffffffff81118282101715610a1857610a18610855565b604052813567ffffffffffffffff811115610a31575f80fd5b610a3d87828501610869565b825250602082013560208201526040820135604082015280925050509250929050565b5f60208284031215610a70575f80fd5b61084e82610999565b5f8060408385031215610a8a575f80fd5b610a9383610999565b9150610aa16020840161081d565b90509250929050565b602081525f61084e6020830184610934565b5f805f8060808587031215610acf575f80fd5b843567ffffffffffffffff811115610ae5575f80fd5b850160408188031215610af6575f80fd5b9350610b046020860161081d565b9250604085013567ffffffffffffffff811115610b1f575f80fd5b610b2b87828801610869565b925050606085013567ffffffffffffffff811115610b47575f80fd5b610b5387828801610869565b91505092959194509250565b63ffffffff8181168382160190811115610b8757634e487b7160e01b5f52601160045260245ffd5b92915050565b60018060a01b0383168152604060208201525f825160606040840152610bb660a0840182610934565b90506020840151606084015260408401516080840152809150509392505050565b600181811c90821680610beb57607f821691505b602082108103610c0957634e487b7160e01b5f52602260045260245ffd5b50919050565b5f8135601e19833603018112610c23575f80fd5b820160208101903567ffffffffffffffff811115610c3f575f80fd5b803603821315610c4d575f80fd5b60408552806040860152808260608701375f60608287010152610c726020850161081d565b63ffffffff811660208701529150601f01601f1916939093016060019392505050565b602081525f61084e6020830184610c0f565b5f808335601e19843603018112610cbc575f80fd5b83018035915067ffffffffffffffff821115610cd6575f80fd5b602001915036819003821315610cea575f80fd5b9250929050565b5f84518060208701845e5f908301908152838582375f930192835250909392505050565b601f821115610d5c57805f5260205f20601f840160051c81016020851015610d3a5750805b601f840160051c820191505b81811015610d59575f8155600101610d46565b50505b505050565b815167ffffffffffffffff811115610d7b57610d7b610855565b610d8f81610d898454610bd7565b84610d15565b6020601f821160018114610dc1575f8315610daa5750848201515b5f19600385901b1c1916600184901b178455610d59565b5f84815260208120601f198516915b82811015610df05787850151825560209485019460019092019101610dd0565b5084821015610e0d57868401515f19600387901b60f8161c191681555b50505050600190811b01905550565b606081525f610e2e6060830186610c0f565b8281036020840152610e408186610934565b91505060018060a01b038316604083015294935050505056fea264697066735822122091435b874fcfe7b5289c5812fcc510c3ed44819d0ff2f854f3d1a5e7a5f14cf164736f6c634300081a0033","linkReferences":{}},"methodIdentifiers":{"allTaskHashes(uint32)":"2d89f6fc","allTaskResponses(address,uint32)":"c20bab7f","avsDirectory()":"6b3aa72e","createNewTask(string)":"85edf874","deregisterOperatorFromAVS(address)":"a364f4da","latestTaskNum()":"8b00ce7c","operatorRegistered(address)":"ec7fbb31","registerOperatorToAVS(address,(bytes,bytes32,uint256))":"9926ee7d","respondToTask((string,uint32),uint32,string,bytes)":"d486b385"},"id":36}