{"abi":[{"type":"function","name":"pause","inputs":[{"name":"newPausedStatus","type":"uint256","internalType":"uint256"}],"outputs":[],"stateMutability":"nonpayable"},{"type":"function","name":"pauseAll","inputs":[],"outputs":[],"stateMutability":"nonpayable"},{"type":"function","name":"paused","inputs":[{"name":"index","type":"uint8","internalType":"uint8"}],"outputs":[{"name":"","type":"bool","internalType":"bool"}],"stateMutability":"view"},{"type":"function","name":"paused","inputs":[],"outputs":[{"name":"","type":"uint256","internalType":"uint256"}],"stateMutability":"view"},{"type":"function","name":"pauserRegistry","inputs":[],"outputs":[{"name":"","type":"address","internalType":"contract IPauserRegistry"}],"stateMutability":"view"},{"type":"function","name":"setPauserRegistry","inputs":[{"name":"newPauserRegistry","type":"address","internalType":"contract IPauserRegistry"}],"outputs":[],"stateMutability":"nonpayable"},{"type":"function","name":"unpause","inputs":[{"name":"newPausedStatus","type":"uint256","internalType":"uint256"}],"outputs":[],"stateMutability":"nonpayable"},{"type":"event","name":"Paused","inputs":[{"name":"account","type":"address","indexed":true,"internalType":"address"},{"name":"newPausedStatus","type":"uint256","indexed":false,"internalType":"uint256"}],"anonymous":false},{"type":"event","name":"PauserRegistrySet","inputs":[{"name":"pauserRegistry","type":"address","indexed":false,"internalType":"contract IPauserRegistry"},{"name":"newPauserRegistry","type":"address","indexed":false,"internalType":"contract IPauserRegistry"}],"anonymous":false},{"type":"event","name":"Unpaused","inputs":[{"name":"account","type":"address","indexed":true,"internalType":"address"},{"name":"newPausedStatus","type":"uint256","indexed":false,"internalType":"uint256"}],"anonymous":false}],"bytecode":{"object":"0x6080604052348015600e575f80fd5b506107a18061001c5f395ff3fe608060405234801561000f575f80fd5b506004361061007a575f3560e01c80635ac86ab7116100585780635ac86ab7146100ae5780635c975abb146100e2578063886f1195146100f3578063fabc1cbc1461011d575f80fd5b806310d67a2f1461007e578063136439dd14610093578063595c6a67146100a6575b5f80fd5b61009161008c366004610646565b610130565b005b6100916100a1366004610668565b6101e7565b610091610323565b6100cd6100bc36600461067f565b6001805460ff9092161b9081161490565b60405190151581526020015b60405180910390f35b6001546040519081526020016100d9565b5f54610105906001600160a01b031681565b6040516001600160a01b0390911681526020016100d9565b61009161012b366004610668565b6103e6565b5f8054906101000a90046001600160a01b03166001600160a01b031663eab66d7a6040518163ffffffff1660e01b8152600401602060405180830381865afa15801561017e573d5f803e3d5ffd5b505050506040513d601f19601f820116820180604052508101906101a2919061069f565b6001600160a01b0316336001600160a01b0316146101db5760405162461bcd60e51b81526004016101d2906106ba565b60405180910390fd5b6101e48161053d565b50565b5f5460405163237dfb4760e11b81523360048201526001600160a01b03909116906346fbf68e90602401602060405180830381865afa15801561022c573d5f803e3d5ffd5b505050506040513d601f19601f820116820180604052508101906102509190610704565b61026c5760405162461bcd60e51b81526004016101d290610723565b600154818116146102e55760405162461bcd60e51b815260206004820152603860248201527f5061757361626c652e70617573653a20696e76616c696420617474656d70742060448201527f746f20756e70617573652066756e6374696f6e616c697479000000000000000060648201526084016101d2565b600181905560405181815233907fab40a374bc51de372200a8bc981af8c9ecdc08dfdaef0bb6e09f88f3c616ef3d906020015b60405180910390a250565b5f5460405163237dfb4760e11b81523360048201526001600160a01b03909116906346fbf68e90602401602060405180830381865afa158015610368573d5f803e3d5ffd5b505050506040513d601f19601f8201168201806040525081019061038c9190610704565b6103a85760405162461bcd60e51b81526004016101d290610723565b5f19600181905560405190815233907fab40a374bc51de372200a8bc981af8c9ecdc08dfdaef0bb6e09f88f3c616ef3d9060200160405180910390a2565b5f8054906101000a90046001600160a01b03166001600160a01b031663eab66d7a6040518163ffffffff1660e01b8152600401602060405180830381865afa158015610434573d5f803e3d5ffd5b505050506040513d601f19601f82011682018060405250810190610458919061069f565b6001600160a01b0316336001600160a01b0316146104885760405162461bcd60e51b81526004016101d2906106ba565b6001541981196001541916146105065760405162461bcd60e51b815260206004820152603860248201527f5061757361626c652e756e70617573653a20696e76616c696420617474656d7060448201527f7420746f2070617573652066756e6374696f6e616c697479000000000000000060648201526084016101d2565b600181905560405181815233907f3582d1828e26bf56bd801502bc021ac0bc8afb57c826e4986b45593c8fad389c90602001610318565b6001600160a01b0381166105cb5760405162461bcd60e51b815260206004820152604960248201527f5061757361626c652e5f73657450617573657252656769737472793a206e657760448201527f50617573657252656769737472792063616e6e6f7420626520746865207a65726064820152686f206164647265737360b81b608482015260a4016101d2565b5f54604080516001600160a01b03928316815291831660208301527f6e9fcd539896fca60e8b0f01dd580233e48a6b0f7df013b89ba7f565869acdb6910160405180910390a15f80546001600160a01b0319166001600160a01b0392909216919091179055565b6001600160a01b03811681146101e4575f80fd5b5f60208284031215610656575f80fd5b813561066181610632565b9392505050565b5f60208284031215610678575f80fd5b5035919050565b5f6020828403121561068f575f80fd5b813560ff81168114610661575f80fd5b5f602082840312156106af575f80fd5b815161066181610632565b6020808252602a908201527f6d73672e73656e646572206973206e6f74207065726d697373696f6e6564206160408201526939903ab73830bab9b2b960b11b606082015260800190565b5f60208284031215610714575f80fd5b81518015158114610661575f80fd5b60208082526028908201527f6d73672e73656e646572206973206e6f74207065726d697373696f6e6564206160408201526739903830bab9b2b960c11b60608201526080019056fea2646970667358221220a9019a2309e822848fc6ffdc29f0e79ffa28c280f0c821f6c94006e7c17b8eb964736f6c634300081a0033","linkReferences":{}},"methodIdentifiers":{"pause(uint256)":"136439dd","pauseAll()":"595c6a67","paused()":"5c975abb","paused(uint8)":"5ac86ab7","pauserRegistry()":"886f1195","setPauserRegistry(address)":"10d67a2f","unpause(uint256)":"fabc1cbc"},"id":9}