{
  "_format": "hh-sol-artifact-1",
  "contractName": "Groth16Verifier",
  "sourceName": "contracts/Verifier.sol",
  "abi": [
    {
      "inputs": [
        {
          "internalType": "uint256[2]",
          "name": "_pA",
          "type": "uint256[2]"
        },
        {
          "internalType": "uint256[2][2]",
          "name": "_pB",
          "type": "uint256[2][2]"
        },
        {
          "internalType": "uint256[2]",
          "name": "_pC",
          "type": "uint256[2]"
        },
        {
          "internalType": "uint256[6]",
          "name": "_pubSignals",
          "type": "uint256[6]"
        }
      ],
      "name": "verifyProof",
      "outputs": [
        {
          "internalType": "bool",
          "name": "",
          "type": "bool"
        }
      ],
      "stateMutability": "view",
      "type": "function"
    }
  ],
  "bytecode": "0x6080604052348015600f57600080fd5b506107d18061001f6000396000f3fe608060405234801561001057600080fd5b506004361061002b5760003560e01c8063f398789b14610030575b600080fd5b61004a600480360381019061004591906106fc565b610060565b6040516100579190610780565b60405180910390f35b600061061c565b7f30644e72e131a029b85045b68181585d2833e84879b9709143e1f593f00000018110610098576000805260206000f35b50565b600060405183815284602082015285604082015260408160608360076107d05a03fa9150816100ce576000805260206000f35b825160408201526020830151606082015260408360808360066107d05a03fa9150816100fe576000805260206000f35b505050505050565b600060808601600087017f010ac0879f460768530a78499741756889563c43e2dc3afeb9c4ca8143d2472581527f07e17c158b10cb1944f4c811a412ab91e1f756715885769325886f3ba747b36060208201526101a960008801357f017bc221dd9d9934d315ec2c47b18b1b1e7fc42e4d3943e6561c6cdeab9b87e97f2f21ac3a2b89801d254264e77b7f27dea278ffec01587921a9f99cddbef680408461009b565b6101f960208801357f06e58f62c94537cd4f983bc3a306348ead7763b83cb742ef7219877733489d4d7f0b43a990584c18c876d69fadec57f09d7e143ce0a2f265ec076dd247cc05f1ed8461009b565b61024960408801357f0c53a9b11178bada176077af49a7e38c5859733c5215db0dca41090ebd082b7f7f0554da4ba7f9776e0df7e50fe7bf711971071b2217800b6652abd481079015c48461009b565b61029960608801357f2e002e8272b07d2acaf39056f8190b4ee52cdb890d08585d719cb216851a5c2d7f2a3be893d615f9dcc0bba35492696a2f70c0a0bd1fd996b2e8fd58b815f3ce6a8461009b565b6102e960808801357f073ea49c7523c089d9c0380a99fd707be378161f228a0492bf08d83fd140adf07f1643bcee9c072a11d653641fdfc007b5c191e51d510096ba23170968e951b6e78461009b565b61033960a08801357f22b01b586a03f239df1eb44df38fcd125d358c7e5353ab47a1d2974549859d637f2c15c4ebf40f18a385f786b16b988f173445ebc52ce73a777196a963f3036d4e8461009b565b833582527f30644e72e131a029b85045b68181585d97816a916871ca8d3c208c16d87cfd4760208501357f30644e72e131a029b85045b68181585d97816a916871ca8d3c208c16d87cfd4703066020830152843560408301526020850135606083015260408501356080830152606085013560a08301527f0b14bc01f34aa67f32505334697a143293e2a70a7331673ac94f7923d1fdaf1f60c08301527f25803befc613cfab10e24e798a53217728d700e792f34172dd5d0d891f0156c360e08301527f244bc00edba2d0e3c337998163ad332119d1e2e5aa6e7996ebb9b85f4070e3c16101008301527f2b50111d43d8fd69487975e4c001a7b252c1aa885daace248a1951b6034877b26101208301527f1ada24c61af370ae5179bbeccfb81925047601b6f69d2394ca3bbd20302b68106101408301527e2216099c12f36762c998e454ee2e90430c86efc60c70f0405f4a25707f073f610160830152600088015161018083015260206000018801516101a08301527f198e9393920d483a7260bfb731fb5d25f1aa493335a9e71297e485b7aef312c26101c08301527f1800deef121f1e76426a00665e5c4479674322d4f75edadd46debd5cd992f6ed6101e08301527f090689d0585ff075ec9e99ad690c3395bc4b313370b38ef355acdadcd122975b6102008301527f12c85ea5db8c6deb4aab71808dcb408fe3d1e7690c43d37b4ce6cc0166fa7daa610220830152853561024083015260208601356102608301527f1bdb443ce61ebcf93daed4215a57e1cec90ca64973023e31197a112e8cee72f66102808301527f117e26c4235f42625b3404f2973059814ff260dba7176d7aae910f493a8e1fb56102a08301527f196e247a12f580e36894f256f0c122393489b4c213b3e913250feee806ca45ff6102c08301527f2fedff4e4bbcbf9f1c56e28a060d50eef5f54e2aab897f6b465acd2ed005ae916102e08301526020826103008460086107d05a03fa82518116935050505095945050505050565b60405161038081016040526106346000840135610067565b6106416020840135610067565b61064e6040840135610067565b61065b6060840135610067565b6106686080840135610067565b61067560a0840135610067565b610682818486888a610106565b8060005260206000f35b600080fd5b600080fd5b6000819050826020600202820111156106b2576106b1610691565b5b92915050565b6000819050826040600202820111156106d4576106d3610691565b5b92915050565b6000819050826020600602820111156106f6576106f5610691565b5b92915050565b6000806000806101c085870312156107175761071661068c565b5b600061072587828801610696565b9450506040610736878288016106b8565b93505060c061074787828801610696565b925050610100610759878288016106da565b91505092959194509250565b60008115159050919050565b61077a81610765565b82525050565b60006020820190506107956000830184610771565b9291505056fea2646970667358221220827be42ce5fbc0b87d4da4a2085ca05b643e71c54779a0a8f6910ae99a22150864736f6c634300081c0033",
  "linkReferences": {},
  "deployedLinkReferences": {}
}