{
  "_format": "hh-sol-artifact-1",
  "contractName": "Loan",
  "sourceName": "contracts/Loan.sol",
  "abi": [
    {
      "inputs": [],
      "stateMutability": "nonpayable",
      "type": "constructor"
    },
    {
      "anonymous": false,
      "inputs": [
        {
          "indexed": true,
          "internalType": "uint256",
          "name": "loanId",
          "type": "uint256"
        },
        {
          "indexed": true,
          "internalType": "uint256",
          "name": "requestId",
          "type": "uint256"
        }
      ],
      "name": "BorrowRequestApproved",
      "type": "event"
    },
    {
      "anonymous": false,
      "inputs": [
        {
          "indexed": true,
          "internalType": "uint256",
          "name": "requestId",
          "type": "uint256"
        },
        {
          "indexed": true,
          "internalType": "address",
          "name": "borrower",
          "type": "address"
        }
      ],
      "name": "BorrowRequestCreated",
      "type": "event"
    },
    {
      "anonymous": false,
      "inputs": [
        {
          "indexed": true,
          "internalType": "uint256",
          "name": "loanId",
          "type": "uint256"
        },
        {
          "indexed": true,
          "internalType": "address",
          "name": "lender",
          "type": "address"
        }
      ],
      "name": "LoanCreated",
      "type": "event"
    },
    {
      "anonymous": false,
      "inputs": [
        {
          "indexed": true,
          "internalType": "uint256",
          "name": "loanId",
          "type": "uint256"
        },
        {
          "indexed": true,
          "internalType": "uint256",
          "name": "requestId",
          "type": "uint256"
        }
      ],
      "name": "LoanRepaid",
      "type": "event"
    },
    {
      "inputs": [
        {
          "internalType": "uint256",
          "name": "requestId",
          "type": "uint256"
        }
      ],
      "name": "approveBorrowRequest",
      "outputs": [],
      "stateMutability": "nonpayable",
      "type": "function"
    },
    {
      "inputs": [
        {
          "internalType": "uint256",
          "name": "",
          "type": "uint256"
        }
      ],
      "name": "approvedBorrowRequests",
      "outputs": [
        {
          "internalType": "uint256",
          "name": "loan_id",
          "type": "uint256"
        },
        {
          "internalType": "uint256",
          "name": "borrow_request_id",
          "type": "uint256"
        },
        {
          "internalType": "bool",
          "name": "has_repayed",
          "type": "bool"
        }
      ],
      "stateMutability": "view",
      "type": "function"
    },
    {
      "inputs": [],
      "name": "borrowRequestCounter",
      "outputs": [
        {
          "internalType": "uint256",
          "name": "",
          "type": "uint256"
        }
      ],
      "stateMutability": "view",
      "type": "function"
    },
    {
      "inputs": [
        {
          "internalType": "uint256",
          "name": "",
          "type": "uint256"
        }
      ],
      "name": "borrowRequests",
      "outputs": [
        {
          "internalType": "uint256",
          "name": "id",
          "type": "uint256"
        },
        {
          "internalType": "address",
          "name": "borrow_address",
          "type": "address"
        },
        {
          "internalType": "uint256",
          "name": "loan_id",
          "type": "uint256"
        },
        {
          "internalType": "string",
          "name": "collateral_token",
          "type": "string"
        },
        {
          "internalType": "uint256",
          "name": "collateral_amount_can_pay",
          "type": "uint256"
        },
        {
          "internalType": "string",
          "name": "deadline_can_repay",
          "type": "string"
        },
        {
          "internalType": "bool",
          "name": "has_passed_threshold",
          "type": "bool"
        },
        {
          "internalType": "bool",
          "name": "isApproved",
          "type": "bool"
        }
      ],
      "stateMutability": "view",
      "type": "function"
    },
    {
      "inputs": [
        {
          "internalType": "uint256",
          "name": "loan_id",
          "type": "uint256"
        },
        {
          "internalType": "string",
          "name": "collateral_token",
          "type": "string"
        },
        {
          "internalType": "uint256",
          "name": "collateral_amount_can_pay",
          "type": "uint256"
        },
        {
          "internalType": "string",
          "name": "deadline_can_repay",
          "type": "string"
        },
        {
          "internalType": "bool",
          "name": "has_passed_threshold",
          "type": "bool"
        }
      ],
      "name": "createBorrowRequest",
      "outputs": [],
      "stateMutability": "nonpayable",
      "type": "function"
    },
    {
      "inputs": [
        {
          "internalType": "uint256",
          "name": "credit_score_threshold",
          "type": "uint256"
        },
        {
          "internalType": "string",
          "name": "lending_token",
          "type": "string"
        },
        {
          "internalType": "uint256",
          "name": "lending_amount",
          "type": "uint256"
        },
        {
          "internalType": "string",
          "name": "collateral_token",
          "type": "string"
        },
        {
          "internalType": "uint256",
          "name": "minimum_collateral_amount",
          "type": "uint256"
        },
        {
          "internalType": "string",
          "name": "deadline_repaying",
          "type": "string"
        }
      ],
      "name": "createLoan",
      "outputs": [],
      "stateMutability": "nonpayable",
      "type": "function"
    },
    {
      "inputs": [],
      "name": "loanCounter",
      "outputs": [
        {
          "internalType": "uint256",
          "name": "",
          "type": "uint256"
        }
      ],
      "stateMutability": "view",
      "type": "function"
    },
    {
      "inputs": [
        {
          "internalType": "uint256",
          "name": "",
          "type": "uint256"
        }
      ],
      "name": "loans",
      "outputs": [
        {
          "internalType": "uint256",
          "name": "id",
          "type": "uint256"
        },
        {
          "internalType": "address",
          "name": "lender_address",
          "type": "address"
        },
        {
          "internalType": "uint256",
          "name": "credit_score_threshold",
          "type": "uint256"
        },
        {
          "internalType": "string",
          "name": "lending_token",
          "type": "string"
        },
        {
          "internalType": "uint256",
          "name": "lending_amount",
          "type": "uint256"
        },
        {
          "internalType": "string",
          "name": "collateral_token",
          "type": "string"
        },
        {
          "internalType": "uint256",
          "name": "minimum_collateral_amount",
          "type": "uint256"
        },
        {
          "internalType": "string",
          "name": "deadline_repaying",
          "type": "string"
        },
        {
          "internalType": "bool",
          "name": "is_Active_Loan",
          "type": "bool"
        }
      ],
      "stateMutability": "view",
      "type": "function"
    },
    {
      "inputs": [],
      "name": "owner",
      "outputs": [
        {
          "internalType": "address",
          "name": "",
          "type": "address"
        }
      ],
      "stateMutability": "view",
      "type": "function"
    },
    {
      "inputs": [
        {
          "internalType": "uint256",
          "name": "loan_id",
          "type": "uint256"
        }
      ],
      "name": "repayLoan",
      "outputs": [],
      "stateMutability": "nonpayable",
      "type": "function"
    },
    {
      "inputs": [
        {
          "internalType": "uint256[2]",
          "name": "_pA",
          "type": "uint256[2]"
        },
        {
          "internalType": "uint256[2][2]",
          "name": "_pB",
          "type": "uint256[2][2]"
        },
        {
          "internalType": "uint256[2]",
          "name": "_pC",
          "type": "uint256[2]"
        },
        {
          "internalType": "uint256[6]",
          "name": "_pubSignals",
          "type": "uint256[6]"
        }
      ],
      "name": "verifyLoanThresholdPassed",
      "outputs": [
        {
          "internalType": "bool",
          "name": "",
          "type": "bool"
        }
      ],
      "stateMutability": "view",
      "type": "function"
    },
    {
      "inputs": [
        {
          "internalType": "uint256[2]",
          "name": "_pA",
          "type": "uint256[2]"
        },
        {
          "internalType": "uint256[2][2]",
          "name": "_pB",
          "type": "uint256[2][2]"
        },
        {
          "internalType": "uint256[2]",
          "name": "_pC",
          "type": "uint256[2]"
        },
        {
          "internalType": "uint256[6]",
          "name": "_pubSignals",
          "type": "uint256[6]"
        }
      ],
      "name": "verifyProof",
      "outputs": [
        {
          "internalType": "bool",
          "name": "",
          "type": "bool"
        }
      ],
      "stateMutability": "view",
      "type": "function"
    }
  ],
  "bytecode": "0x6080604052348015600f57600080fd5b5033600260006101000a81548173ffffffffffffffffffffffffffffffffffffffff021916908373ffffffffffffffffffffffffffffffffffffffff160217905550612003806100606000396000f3fe608060405234801561001057600080fd5b50600436106100b45760003560e01c8063ab7b1c8911610071578063ab7b1c89146101ac578063ba5f1fb4146101c8578063e12003e3146101e4578063e1ec3c6814610200578063e707ff8114610238578063f398789b14610254576100b4565b80631ebde2c5146100b95780632afc153a146100eb57806334d9289e1461010957806350d282fc146101275780638da5cb5b1461015e5780639968c24d1461017c575b600080fd5b6100d360048036038101906100ce91906113b5565b610284565b6040516100e29392919061140c565b60405180910390f35b6100f36102bb565b6040516101009190611443565b60405180910390f35b6101116102c1565b60405161011e9190611443565b60405180910390f35b610141600480360381019061013c91906113b5565b6102c7565b60405161015598979695949392919061152f565b60405180910390f35b610166610459565b60405161017391906115bb565b60405180910390f35b61019660048036038101906101919190611641565b61047f565b6040516101a391906116aa565b60405180910390f35b6101c660048036038101906101c191906113b5565b610497565b005b6101e260048036038101906101dd9190611826565b61059a565b005b6101fe60048036038101906101f991906113b5565b6107a2565b005b61021a600480360381019061021591906113b5565b610983565b60405161022f999897969594939291906118d9565b60405180910390f35b610252600480360381019061024d919061197b565b610b96565b005b61026e60048036038101906102699190611641565b610d3f565b60405161027b91906116aa565b60405180910390f35b60056020528060005260406000206000915090508060000154908060010154908060020160009054906101000a900460ff16905083565b60015481565b60005481565b60046020528060005260406000206000915090508060000154908060010160009054906101000a900473ffffffffffffffffffffffffffffffffffffffff169080600201549080600301805461031c90611a8b565b80601f016020809104026020016040519081016040528092919081815260200182805461034890611a8b565b80156103955780601f1061036a57610100808354040283529160200191610395565b820191906000526020600020905b81548152906001019060200180831161037857829003601f168201915b5050505050908060040154908060050180546103b090611a8b565b80601f01602080910402602001604051908101604052809291908181526020018280546103dc90611a8b565b80156104295780601f106103fe57610100808354040283529160200191610429565b820191906000526020600020905b81548152906001019060200180831161040c57829003601f168201915b5050505050908060060160009054906101000a900460ff16908060060160019054906101000a900460ff16905088565b600260009054906101000a900473ffffffffffffffffffffffffffffffffffffffff1681565b600061048d85858585610d3f565b9050949350505050565b600060056000838152602001908152602001600020905060008160010154036104f5576040517f08c379a00000000000000000000000000000000000000000000000000000000081526004016104ec90611b08565b60405180910390fd5b8060020160009054906101000a900460ff1615610547576040517f08c379a000000000000000000000000000000000000000000000000000000000815260040161053e90611b74565b60405180910390fd5b60018160020160006101000a81548160ff0219169083151502179055508060010154827f040cee90ee4799897c30ca04e5feb6fa43dbba9b6d084b4b257cdafd84ba013e60405160405180910390a35050565b6003600086815260200190815260200160002060080160009054906101000a900460ff166105fd576040517f08c379a00000000000000000000000000000000000000000000000000000000081526004016105f490611be0565b60405180910390fd5b6001600081548092919061061090611c2f565b919050555060405180610100016040528060015481526020013373ffffffffffffffffffffffffffffffffffffffff1681526020018681526020018581526020018481526020018381526020018215158152602001600015158152506004600060015481526020019081526020016000206000820151816000015560208201518160010160006101000a81548173ffffffffffffffffffffffffffffffffffffffff021916908373ffffffffffffffffffffffffffffffffffffffff1602179055506040820151816002015560608201518160030190816106f19190611e23565b506080820151816004015560a08201518160050190816107119190611e23565b5060c08201518160060160006101000a81548160ff02191690831515021790555060e08201518160060160016101000a81548160ff0219169083151502179055509050503373ffffffffffffffffffffffffffffffffffffffff166001547f46b859fddff2abfe5cb3cf6fe3a8762cca5b640bb2a9c54afd2544a7ce4efa1560405160405180910390a35050505050565b60006004600083815260200190815260200160002090506000600360008360020154815260200190815260200160002090508060010160009054906101000a900473ffffffffffffffffffffffffffffffffffffffff1673ffffffffffffffffffffffffffffffffffffffff163373ffffffffffffffffffffffffffffffffffffffff1614610866576040517f08c379a000000000000000000000000000000000000000000000000000000000815260040161085d90611f41565b60405180910390fd5b8160060160009054906101000a900460ff166108b7576040517f08c379a00000000000000000000000000000000000000000000000000000000081526004016108ae90611fad565b60405180910390fd5b60018260060160016101000a81548160ff02191690831515021790555060405180606001604052808360020154815260200183600001548152602001600015158152506005600084600201548152602001908152602001600020600082015181600001556020820151816001015560408201518160020160006101000a81548160ff021916908315150217905550905050816000015482600201547f33ed8eaa8bc5b29d43d6a0fb4d870a42a8efde827064cb5a60d395014712acc760405160405180910390a3505050565b60036020528060005260406000206000915090508060000154908060010160009054906101000a900473ffffffffffffffffffffffffffffffffffffffff16908060020154908060030180546109d890611a8b565b80601f0160208091040260200160405190810160405280929190818152602001828054610a0490611a8b565b8015610a515780601f10610a2657610100808354040283529160200191610a51565b820191906000526020600020905b815481529060010190602001808311610a3457829003601f168201915b505050505090806004015490806005018054610a6c90611a8b565b80601f0160208091040260200160405190810160405280929190818152602001828054610a9890611a8b565b8015610ae55780601f10610aba57610100808354040283529160200191610ae5565b820191906000526020600020905b815481529060010190602001808311610ac857829003601f168201915b505050505090806006015490806007018054610b0090611a8b565b80601f0160208091040260200160405190810160405280929190818152602001828054610b2c90611a8b565b8015610b795780601f10610b4e57610100808354040283529160200191610b79565b820191906000526020600020905b815481529060010190602001808311610b5c57829003601f168201915b5050505050908060080160009054906101000a900460ff16905089565b600080815480929190610ba890611c2f565b919050555060405180610120016040528060005481526020013373ffffffffffffffffffffffffffffffffffffffff1681526020018781526020018681526020018581526020018481526020018381526020018281526020016001151581525060036000805481526020019081526020016000206000820151816000015560208201518160010160006101000a81548173ffffffffffffffffffffffffffffffffffffffff021916908373ffffffffffffffffffffffffffffffffffffffff160217905550604082015181600201556060820151816003019081610c8c9190611e23565b506080820151816004015560a0820151816005019081610cac9190611e23565b5060c0820151816006015560e0820151816007019081610ccc9190611e23565b506101008201518160080160006101000a81548160ff0219169083151502179055509050503373ffffffffffffffffffffffffffffffffffffffff166000547f1e6e02c9589612d091b6d88e3f0a4af8853df1573895d33dc5bd10f27bfbc59760405160405180910390a3505050505050565b60006112fb565b7f30644e72e131a029b85045b68181585d2833e84879b9709143e1f593f00000018110610d77576000805260206000f35b50565b600060405183815284602082015285604082015260408160608360076107d05a03fa915081610dad576000805260206000f35b825160408201526020830151606082015260408360808360066107d05a03fa915081610ddd576000805260206000f35b505050505050565b600060808601600087017f010ac0879f460768530a78499741756889563c43e2dc3afeb9c4ca8143d2472581527f07e17c158b10cb1944f4c811a412ab91e1f756715885769325886f3ba747b3606020820152610e8860008801357f017bc221dd9d9934d315ec2c47b18b1b1e7fc42e4d3943e6561c6cdeab9b87e97f2f21ac3a2b89801d254264e77b7f27dea278ffec01587921a9f99cddbef6804084610d7a565b610ed860208801357f06e58f62c94537cd4f983bc3a306348ead7763b83cb742ef7219877733489d4d7f0b43a990584c18c876d69fadec57f09d7e143ce0a2f265ec076dd247cc05f1ed84610d7a565b610f2860408801357f0c53a9b11178bada176077af49a7e38c5859733c5215db0dca41090ebd082b7f7f0554da4ba7f9776e0df7e50fe7bf711971071b2217800b6652abd481079015c484610d7a565b610f7860608801357f2e002e8272b07d2acaf39056f8190b4ee52cdb890d08585d719cb216851a5c2d7f2a3be893d615f9dcc0bba35492696a2f70c0a0bd1fd996b2e8fd58b815f3ce6a84610d7a565b610fc860808801357f073ea49c7523c089d9c0380a99fd707be378161f228a0492bf08d83fd140adf07f1643bcee9c072a11d653641fdfc007b5c191e51d510096ba23170968e951b6e784610d7a565b61101860a08801357f22b01b586a03f239df1eb44df38fcd125d358c7e5353ab47a1d2974549859d637f2c15c4ebf40f18a385f786b16b988f173445ebc52ce73a777196a963f3036d4e84610d7a565b833582527f30644e72e131a029b85045b68181585d97816a916871ca8d3c208c16d87cfd4760208501357f30644e72e131a029b85045b68181585d97816a916871ca8d3c208c16d87cfd4703066020830152843560408301526020850135606083015260408501356080830152606085013560a08301527f0b14bc01f34aa67f32505334697a143293e2a70a7331673ac94f7923d1fdaf1f60c08301527f25803befc613cfab10e24e798a53217728d700e792f34172dd5d0d891f0156c360e08301527f244bc00edba2d0e3c337998163ad332119d1e2e5aa6e7996ebb9b85f4070e3c16101008301527f2b50111d43d8fd69487975e4c001a7b252c1aa885daace248a1951b6034877b26101208301527f1ada24c61af370ae5179bbeccfb81925047601b6f69d2394ca3bbd20302b68106101408301527e2216099c12f36762c998e454ee2e90430c86efc60c70f0405f4a25707f073f610160830152600088015161018083015260206000018801516101a08301527f198e9393920d483a7260bfb731fb5d25f1aa493335a9e71297e485b7aef312c26101c08301527f1800deef121f1e76426a00665e5c4479674322d4f75edadd46debd5cd992f6ed6101e08301527f090689d0585ff075ec9e99ad690c3395bc4b313370b38ef355acdadcd122975b6102008301527f12c85ea5db8c6deb4aab71808dcb408fe3d1e7690c43d37b4ce6cc0166fa7daa610220830152853561024083015260208601356102608301527f1bdb443ce61ebcf93daed4215a57e1cec90ca64973023e31197a112e8cee72f66102808301527f117e26c4235f42625b3404f2973059814ff260dba7176d7aae910f493a8e1fb56102a08301527f196e247a12f580e36894f256f0c122393489b4c213b3e913250feee806ca45ff6102c08301527f2fedff4e4bbcbf9f1c56e28a060d50eef5f54e2aab897f6b465acd2ed005ae916102e08301526020826103008460086107d05a03fa82518116935050505095945050505050565b60405161038081016040526113136000840135610d46565b6113206020840135610d46565b61132d6040840135610d46565b61133a6060840135610d46565b6113476080840135610d46565b61135460a0840135610d46565b611361818486888a610de5565b8060005260206000f35b6000604051905090565b600080fd5b600080fd5b6000819050919050565b6113928161137f565b811461139d57600080fd5b50565b6000813590506113af81611389565b92915050565b6000602082840312156113cb576113ca611375565b5b60006113d9848285016113a0565b91505092915050565b6113eb8161137f565b82525050565b60008115159050919050565b611406816113f1565b82525050565b600060608201905061142160008301866113e2565b61142e60208301856113e2565b61143b60408301846113fd565b949350505050565b600060208201905061145860008301846113e2565b92915050565b600073ffffffffffffffffffffffffffffffffffffffff82169050919050565b60006114898261145e565b9050919050565b6114998161147e565b82525050565b600081519050919050565b600082825260208201905092915050565b60005b838110156114d95780820151818401526020810190506114be565b60008484015250505050565b6000601f19601f8301169050919050565b60006115018261149f565b61150b81856114aa565b935061151b8185602086016114bb565b611524816114e5565b840191505092915050565b600061010082019050611545600083018b6113e2565b611552602083018a611490565b61155f60408301896113e2565b818103606083015261157181886114f6565b905061158060808301876113e2565b81810360a083015261159281866114f6565b90506115a160c08301856113fd565b6115ae60e08301846113fd565b9998505050505050505050565b60006020820190506115d06000830184611490565b92915050565b600080fd5b6000819050826020600202820111156115f7576115f66115d6565b5b92915050565b600081905082604060020282011115611619576116186115d6565b5b92915050565b60008190508260206006028201111561163b5761163a6115d6565b5b92915050565b6000806000806101c0858703121561165c5761165b611375565b5b600061166a878288016115db565b945050604061167b878288016115fd565b93505060c061168c878288016115db565b92505061010061169e8782880161161f565b91505092959194509250565b60006020820190506116bf60008301846113fd565b92915050565b600080fd5b600080fd5b7f4e487b7100000000000000000000000000000000000000000000000000000000600052604160045260246000fd5b611707826114e5565b810181811067ffffffffffffffff82111715611726576117256116cf565b5b80604052505050565b600061173961136b565b905061174582826116fe565b919050565b600067ffffffffffffffff821115611765576117646116cf565b5b61176e826114e5565b9050602081019050919050565b82818337600083830152505050565b600061179d6117988461174a565b61172f565b9050828152602081018484840111156117b9576117b86116ca565b5b6117c484828561177b565b509392505050565b600082601f8301126117e1576117e06116c5565b5b81356117f184826020860161178a565b91505092915050565b611803816113f1565b811461180e57600080fd5b50565b600081359050611820816117fa565b92915050565b600080600080600060a0868803121561184257611841611375565b5b6000611850888289016113a0565b955050602086013567ffffffffffffffff8111156118715761187061137a565b5b61187d888289016117cc565b945050604061188e888289016113a0565b935050606086013567ffffffffffffffff8111156118af576118ae61137a565b5b6118bb888289016117cc565b92505060806118cc88828901611811565b9150509295509295909350565b6000610120820190506118ef600083018c6113e2565b6118fc602083018b611490565b611909604083018a6113e2565b818103606083015261191b81896114f6565b905061192a60808301886113e2565b81810360a083015261193c81876114f6565b905061194b60c08301866113e2565b81810360e083015261195d81856114f6565b905061196d6101008301846113fd565b9a9950505050505050505050565b60008060008060008060c0878903121561199857611997611375565b5b60006119a689828a016113a0565b965050602087013567ffffffffffffffff8111156119c7576119c661137a565b5b6119d389828a016117cc565b95505060406119e489828a016113a0565b945050606087013567ffffffffffffffff811115611a0557611a0461137a565b5b611a1189828a016117cc565b9350506080611a2289828a016113a0565b92505060a087013567ffffffffffffffff811115611a4357611a4261137a565b5b611a4f89828a016117cc565b9150509295509295509295565b7f4e487b7100000000000000000000000000000000000000000000000000000000600052602260045260246000fd5b60006002820490506001821680611aa357607f821691505b602082108103611ab657611ab5611a5c565b5b50919050565b7f4c6f616e206973206e6f7420617070726f766564000000000000000000000000600082015250565b6000611af26014836114aa565b9150611afd82611abc565b602082019050919050565b60006020820190508181036000830152611b2181611ae5565b9050919050565b7f4c6f616e20616c72656164792072657061696400000000000000000000000000600082015250565b6000611b5e6013836114aa565b9150611b6982611b28565b602082019050919050565b60006020820190508181036000830152611b8d81611b51565b9050919050565b7f4c6f616e206973206e6f74206163746976650000000000000000000000000000600082015250565b6000611bca6012836114aa565b9150611bd582611b94565b602082019050919050565b60006020820190508181036000830152611bf981611bbd565b9050919050565b7f4e487b7100000000000000000000000000000000000000000000000000000000600052601160045260246000fd5b6000611c3a8261137f565b91507fffffffffffffffffffffffffffffffffffffffffffffffffffffffffffffffff8203611c6c57611c6b611c00565b5b600182019050919050565b60008190508160005260206000209050919050565b60006020601f8301049050919050565b600082821b905092915050565b600060088302611cd97fffffffffffffffffffffffffffffffffffffffffffffffffffffffffffffffff82611c9c565b611ce38683611c9c565b95508019841693508086168417925050509392505050565b6000819050919050565b6000611d20611d1b611d168461137f565b611cfb565b61137f565b9050919050565b6000819050919050565b611d3a83611d05565b611d4e611d4682611d27565b848454611ca9565b825550505050565b600090565b611d63611d56565b611d6e818484611d31565b505050565b5b81811015611d9257611d87600082611d5b565b600181019050611d74565b5050565b601f821115611dd757611da881611c77565b611db184611c8c565b81016020851015611dc0578190505b611dd4611dcc85611c8c565b830182611d73565b50505b505050565b600082821c905092915050565b6000611dfa60001984600802611ddc565b1980831691505092915050565b6000611e138383611de9565b9150826002028217905092915050565b611e2c8261149f565b67ffffffffffffffff811115611e4557611e446116cf565b5b611e4f8254611a8b565b611e5a828285611d96565b600060209050601f831160018114611e8d5760008415611e7b578287015190505b611e858582611e07565b865550611eed565b601f198416611e9b86611c77565b60005b82811015611ec357848901518255600182019150602085019450602081019050611e9e565b86831015611ee05784890151611edc601f891682611de9565b8355505b6001600288020188555050505b505050505050565b7f4f6e6c79206c656e6465722063616e20617070726f7665000000000000000000600082015250565b6000611f2b6017836114aa565b9150611f3682611ef5565b602082019050919050565b60006020820190508181036000830152611f5a81611f1e565b9050919050565b7f5468726573686f6c64206e6f74206d6574000000000000000000000000000000600082015250565b6000611f976011836114aa565b9150611fa282611f61565b602082019050919050565b60006020820190508181036000830152611fc681611f8a565b905091905056fea2646970667358221220a3c43c6bfe82bf5efcb6ddb3de12aa47f2ac5cc065c522afea324e526e4a891964736f6c634300081c0033",
  "linkReferences": {},
  "deployedLinkReferences": {}
}