{"abi":[{"type":"constructor","inputs":[{"name":"_delegation","type":"address","internalType":"contract IDelegationManager"}],"stateMutability":"nonpayable"},{"type":"function","name":"DOMAIN_TYPEHASH","inputs":[],"outputs":[{"name":"","type":"bytes32","internalType":"bytes32"}],"stateMutability":"view"},{"type":"function","name":"OPERATOR_AVS_REGISTRATION_TYPEHASH","inputs":[],"outputs":[{"name":"","type":"bytes32","internalType":"bytes32"}],"stateMutability":"view"},{"type":"function","name":"avsOperatorStatus","inputs":[{"name":"","type":"address","internalType":"address"},{"name":"","type":"address","internalType":"address"}],"outputs":[{"name":"","type":"uint8","internalType":"enum IAVSDirectory.OperatorAVSRegistrationStatus"}],"stateMutability":"view"},{"type":"function","name":"calculateOperatorAVSRegistrationDigestHash","inputs":[{"name":"operator","type":"address","internalType":"address"},{"name":"avs","type":"address","internalType":"address"},{"name":"salt","type":"bytes32","internalType":"bytes32"},{"name":"expiry","type":"uint256","internalType":"uint256"}],"outputs":[{"name":"","type":"bytes32","internalType":"bytes32"}],"stateMutability":"view"},{"type":"function","name":"cancelSalt","inputs":[{"name":"salt","type":"bytes32","internalType":"bytes32"}],"outputs":[],"stateMutability":"nonpayable"},{"type":"function","name":"delegation","inputs":[],"outputs":[{"name":"","type":"address","internalType":"contract IDelegationManager"}],"stateMutability":"view"},{"type":"function","name":"deregisterOperatorFromAVS","inputs":[{"name":"operator","type":"address","internalType":"address"}],"outputs":[],"stateMutability":"nonpayable"},{"type":"function","name":"domainSeparator","inputs":[],"outputs":[{"name":"","type":"bytes32","internalType":"bytes32"}],"stateMutability":"view"},{"type":"function","name":"initialize","inputs":[{"name":"initialOwner","type":"address","internalType":"address"},{"name":"_pauserRegistry","type":"address","internalType":"contract IPauserRegistry"},{"name":"initialPausedStatus","type":"uint256","internalType":"uint256"}],"outputs":[],"stateMutability":"nonpayable"},{"type":"function","name":"operatorSaltIsSpent","inputs":[{"name":"","type":"address","internalType":"address"},{"name":"","type":"bytes32","internalType":"bytes32"}],"outputs":[{"name":"","type":"bool","internalType":"bool"}],"stateMutability":"view"},{"type":"function","name":"owner","inputs":[],"outputs":[{"name":"","type":"address","internalType":"address"}],"stateMutability":"view"},{"type":"function","name":"pause","inputs":[{"name":"newPausedStatus","type":"uint256","internalType":"uint256"}],"outputs":[],"stateMutability":"nonpayable"},{"type":"function","name":"pauseAll","inputs":[],"outputs":[],"stateMutability":"nonpayable"},{"type":"function","name":"paused","inputs":[{"name":"index","type":"uint8","internalType":"uint8"}],"outputs":[{"name":"","type":"bool","internalType":"bool"}],"stateMutability":"view"},{"type":"function","name":"paused","inputs":[],"outputs":[{"name":"","type":"uint256","internalType":"uint256"}],"stateMutability":"view"},{"type":"function","name":"pauserRegistry","inputs":[],"outputs":[{"name":"","type":"address","internalType":"contract IPauserRegistry"}],"stateMutability":"view"},{"type":"function","name":"registerOperatorToAVS","inputs":[{"name":"operator","type":"address","internalType":"address"},{"name":"operatorSignature","type":"tuple","internalType":"struct ISignatureUtils.SignatureWithSaltAndExpiry","components":[{"name":"signature","type":"bytes","internalType":"bytes"},{"name":"salt","type":"bytes32","internalType":"bytes32"},{"name":"expiry","type":"uint256","internalType":"uint256"}]}],"outputs":[],"stateMutability":"nonpayable"},{"type":"function","name":"renounceOwnership","inputs":[],"outputs":[],"stateMutability":"nonpayable"},{"type":"function","name":"setPauserRegistry","inputs":[{"name":"newPauserRegistry","type":"address","internalType":"contract IPauserRegistry"}],"outputs":[],"stateMutability":"nonpayable"},{"type":"function","name":"transferOwnership","inputs":[{"name":"newOwner","type":"address","internalType":"address"}],"outputs":[],"stateMutability":"nonpayable"},{"type":"function","name":"unpause","inputs":[{"name":"newPausedStatus","type":"uint256","internalType":"uint256"}],"outputs":[],"stateMutability":"nonpayable"},{"type":"function","name":"updateAVSMetadataURI","inputs":[{"name":"metadataURI","type":"string","internalType":"string"}],"outputs":[],"stateMutability":"nonpayable"},{"type":"event","name":"AVSMetadataURIUpdated","inputs":[{"name":"avs","type":"address","indexed":true,"internalType":"address"},{"name":"metadataURI","type":"string","indexed":false,"internalType":"string"}],"anonymous":false},{"type":"event","name":"Initialized","inputs":[{"name":"version","type":"uint8","indexed":false,"internalType":"uint8"}],"anonymous":false},{"type":"event","name":"OperatorAVSRegistrationStatusUpdated","inputs":[{"name":"operator","type":"address","indexed":true,"internalType":"address"},{"name":"avs","type":"address","indexed":true,"internalType":"address"},{"name":"status","type":"uint8","indexed":false,"internalType":"enum IAVSDirectory.OperatorAVSRegistrationStatus"}],"anonymous":false},{"type":"event","name":"OwnershipTransferred","inputs":[{"name":"previousOwner","type":"address","indexed":true,"internalType":"address"},{"name":"newOwner","type":"address","indexed":true,"internalType":"address"}],"anonymous":false},{"type":"event","name":"Paused","inputs":[{"name":"account","type":"address","indexed":true,"internalType":"address"},{"name":"newPausedStatus","type":"uint256","indexed":false,"internalType":"uint256"}],"anonymous":false},{"type":"event","name":"PauserRegistrySet","inputs":[{"name":"pauserRegistry","type":"address","indexed":false,"internalType":"contract IPauserRegistry"},{"name":"newPauserRegistry","type":"address","indexed":false,"internalType":"contract IPauserRegistry"}],"anonymous":false},{"type":"event","name":"Unpaused","inputs":[{"name":"account","type":"address","indexed":true,"internalType":"address"},{"name":"newPausedStatus","type":"uint256","indexed":false,"internalType":"uint256"}],"anonymous":false}],"bytecode":{"object":"0x60c060405234801561000f575f80fd5b50604051611ed1380380611ed183398101604081905261002e9161010a565b6001600160a01b03811660805261004361004d565b504660a052610137565b5f54610100900460ff16156100b85760405162461bcd60e51b815260206004820152602760248201527f496e697469616c697a61626c653a20636f6e747261637420697320696e697469604482015266616c697a696e6760c81b606482015260840160405180910390fd5b5f5460ff9081161015610108575f805460ff191660ff9081179091556040519081527f7f26b83ff96e1f2b6a682f133852f6798a09c465da95921460cefb38474024989060200160405180910390a15b565b5f6020828403121561011a575f80fd5b81516001600160a01b0381168114610130575f80fd5b9392505050565b60805160a051611d7261015f5f395f610e7b01525f818161031c01526109640152611d725ff3fe608060405234801561000f575f80fd5b506004361061013d575f3560e01c80638da5cb5b116100b4578063d79aceab11610079578063d79aceab146102f0578063df5cf72314610317578063ec76f4421461033e578063f2fde38b14610351578063f698da2514610364578063fabc1cbc1461036c575f80fd5b80638da5cb5b146102935780639926ee7d146102a4578063a1060c88146102b7578063a364f4da146102ca578063a98fb355146102dd575f80fd5b806349075da31161010557806349075da3146101f3578063595c6a671461022d5780635ac86ab7146102355780635c975abb14610258578063715018a614610260578063886f119514610268575f80fd5b806310d67a2f14610141578063136439dd146101565780631794bb3c1461016957806320606b701461017c578063374823b5146101b6575b5f80fd5b61015461014f366004611862565b61037f565b005b610154610164366004611884565b610438565b61015461017736600461189b565b610575565b6101a37f8cad95687ba82c2ce50e74f7b754645e5117c3a5bec8151c0726d5857980a86681565b6040519081526020015b60405180910390f35b6101e36101c43660046118d9565b609960209081525f928352604080842090915290825290205460ff1681565b60405190151581526020016101ad565b610220610201366004611903565b609860209081525f928352604080842090915290825290205460ff1681565b6040516101ad919061194e565b610154610699565b6101e3610243366004611974565b606654600160ff9092169190911b9081161490565b6066546101a3565b61015461075d565b60655461027b906001600160a01b031681565b6040516001600160a01b0390911681526020016101ad565b6033546001600160a01b031661027b565b6101546102b2366004611a02565b610770565b6101a36102c5366004611aef565b610af5565b6101546102d8366004611862565b610bad565b6101546102eb366004611b32565b610d12565b6101a37fda2c89bafdd34776a2b8bb9c83c82f419e20cc8c67207f70edd58249b92661bd81565b61027b7f000000000000000000000000000000000000000000000000000000000000000081565b61015461034c366004611884565b610d59565b61015461035f366004611862565b610e02565b6101a3610e78565b61015461037a366004611884565b610eb4565b60655f9054906101000a90046001600160a01b03166001600160a01b031663eab66d7a6040518163ffffffff1660e01b8152600401602060405180830381865afa1580156103cf573d5f803e3d5ffd5b505050506040513d601f19601f820116820180604052508101906103f39190611ba0565b6001600160a01b0316336001600160a01b03161461042c5760405162461bcd60e51b815260040161042390611bbb565b60405180910390fd5b6104358161100d565b50565b60655460405163237dfb4760e11b81523360048201526001600160a01b03909116906346fbf68e90602401602060405180830381865afa15801561047e573d5f803e3d5ffd5b505050506040513d601f19601f820116820180604052508101906104a29190611c05565b6104be5760405162461bcd60e51b815260040161042390611c24565b606654818116146105375760405162461bcd60e51b815260206004820152603860248201527f5061757361626c652e70617573653a20696e76616c696420617474656d70742060448201527f746f20756e70617573652066756e6374696f6e616c69747900000000000000006064820152608401610423565b606681905560405181815233907fab40a374bc51de372200a8bc981af8c9ecdc08dfdaef0bb6e09f88f3c616ef3d906020015b60405180910390a250565b5f54610100900460ff161580801561059357505f54600160ff909116105b806105ac5750303b1580156105ac57505f5460ff166001145b61060f5760405162461bcd60e51b815260206004820152602e60248201527f496e697469616c697a61626c653a20636f6e747261637420697320616c72656160448201526d191e481a5b9a5d1a585b1a5e995960921b6064820152608401610423565b5f805460ff191660011790558015610630575f805461ff0019166101001790555b61063a8383611104565b6106426111ee565b60975561064e84611285565b8015610693575f805461ff0019169055604051600181527f7f26b83ff96e1f2b6a682f133852f6798a09c465da95921460cefb38474024989060200160405180910390a15b50505050565b60655460405163237dfb4760e11b81523360048201526001600160a01b03909116906346fbf68e90602401602060405180830381865afa1580156106df573d5f803e3d5ffd5b505050506040513d601f19601f820116820180604052508101906107039190611c05565b61071f5760405162461bcd60e51b815260040161042390611c24565b5f19606681905560405190815233907fab40a374bc51de372200a8bc981af8c9ecdc08dfdaef0bb6e09f88f3c616ef3d9060200160405180910390a2565b6107656112d6565b61076e5f611285565b565b6066545f906001908116036107c35760405162461bcd60e51b815260206004820152601960248201527814185d5cd8589b194e881a5b99195e081a5cc81c185d5cd959603a1b6044820152606401610423565b428260400151101561082a5760405162461bcd60e51b815260206004820152603e60248201525f80516020611d1d83398151915260448201527f56533a206f70657261746f72207369676e6174757265206578706972656400006064820152608401610423565b6001335f9081526098602090815260408083206001600160a01b038816845290915290205460ff1660018111156108635761086361193a565b036108c35760405162461bcd60e51b815260206004820152603f60248201525f80516020611d1d83398151915260448201527f56533a206f70657261746f7220616c72656164792072656769737465726564006064820152608401610423565b6001600160a01b0383165f90815260996020908152604080832085830151845290915290205460ff16156109455760405162461bcd60e51b815260206004820152603660248201525f80516020611d1d8339815191526044820152751594ce881cd85b1d08185b1c9958591e481cdc195b9d60521b6064820152608401610423565b6040516336b87bd760e11b81526001600160a01b0384811660048301527f00000000000000000000000000000000000000000000000000000000000000001690636d70f7ae90602401602060405180830381865afa1580156109a9573d5f803e3d5ffd5b505050506040513d601f19601f820116820180604052508101906109cd9190611c05565b610a425760405162461bcd60e51b815260206004820152604d60248201525f80516020611d1d83398151915260448201527f56533a206f70657261746f72206e6f74207265676973746572656420746f204560648201526c1a59d95b93185e595c881e595d609a1b608482015260a401610423565b5f610a57843385602001518660400151610af5565b9050610a678482855f0151611330565b335f8181526098602090815260408083206001600160a01b0389168085529083528184208054600160ff199182168117909255609985528386208a860151875290945293829020805490931684179092555190917ff0952b1c65271d819d39983d2abb044b9cace59bcc4d4dd389f586ebdcb15b4191610ae7919061194e565b60405180910390a350505050565b604080517fda2c89bafdd34776a2b8bb9c83c82f419e20cc8c67207f70edd58249b92661bd6020808301919091526001600160a01b0387811683850152861660608301526080820185905260a08083018590528351808403909101815260c090920190925280519101205f9081610b6a610e78565b60405161190160f01b602082015260228101919091526042810183905260620160408051808303601f190181529190528051602090910120979650505050505050565b6066545f90600190811603610c005760405162461bcd60e51b815260206004820152601960248201527814185d5cd8589b194e881a5b99195e081a5cc81c185d5cd959603a1b6044820152606401610423565b6001335f9081526098602090815260408083206001600160a01b038716845290915290205460ff166001811115610c3957610c3961193a565b14610cac5760405162461bcd60e51b815260206004820152603f60248201527f4156534469726563746f72792e646572656769737465724f70657261746f724660448201527f726f6d4156533a206f70657261746f72206e6f742072656769737465726564006064820152608401610423565b335f8181526098602090815260408083206001600160a01b0387168085529252808320805460ff191690555190917ff0952b1c65271d819d39983d2abb044b9cace59bcc4d4dd389f586ebdcb15b4191610d06919061194e565b60405180910390a35050565b336001600160a01b03167fa89c1dc243d8908a96dd84944bcc97d6bc6ac00dd78e20621576be6a3c9437138383604051610d4d929190611c6c565b60405180910390a25050565b335f90815260996020908152604080832084845290915290205460ff1615610ddd5760405162461bcd60e51b815260206004820152603160248201527f4156534469726563746f72792e63616e63656c53616c743a2063616e6e6f742060448201527018d85b98d95b081cdc195b9d081cd85b1d607a1b6064820152608401610423565b335f90815260996020908152604080832093835292905220805460ff19166001179055565b610e0a6112d6565b6001600160a01b038116610e6f5760405162461bcd60e51b815260206004820152602660248201527f4f776e61626c653a206e6577206f776e657220697320746865207a65726f206160448201526564647265737360d01b6064820152608401610423565b61043581611285565b5f7f00000000000000000000000000000000000000000000000000000000000000004603610ea7575060975490565b610eaf6111ee565b905090565b60655f9054906101000a90046001600160a01b03166001600160a01b031663eab66d7a6040518163ffffffff1660e01b8152600401602060405180830381865afa158015610f04573d5f803e3d5ffd5b505050506040513d601f19601f82011682018060405250810190610f289190611ba0565b6001600160a01b0316336001600160a01b031614610f585760405162461bcd60e51b815260040161042390611bbb565b606654198119606654191614610fd65760405162461bcd60e51b815260206004820152603860248201527f5061757361626c652e756e70617573653a20696e76616c696420617474656d7060448201527f7420746f2070617573652066756e6374696f6e616c69747900000000000000006064820152608401610423565b606681905560405181815233907f3582d1828e26bf56bd801502bc021ac0bc8afb57c826e4986b45593c8fad389c9060200161056a565b6001600160a01b03811661109b5760405162461bcd60e51b815260206004820152604960248201527f5061757361626c652e5f73657450617573657252656769737472793a206e657760448201527f50617573657252656769737472792063616e6e6f7420626520746865207a65726064820152686f206164647265737360b81b608482015260a401610423565b606554604080516001600160a01b03928316815291831660208301527f6e9fcd539896fca60e8b0f01dd580233e48a6b0f7df013b89ba7f565869acdb6910160405180910390a1606580546001600160a01b0319166001600160a01b0392909216919091179055565b6065546001600160a01b031615801561112557506001600160a01b03821615155b6111a75760405162461bcd60e51b815260206004820152604760248201527f5061757361626c652e5f696e697469616c697a655061757365723a205f696e6960448201527f7469616c697a6550617573657228292063616e206f6e6c792062652063616c6c6064820152666564206f6e636560c81b608482015260a401610423565b606681905560405181815233907fab40a374bc51de372200a8bc981af8c9ecdc08dfdaef0bb6e09f88f3c616ef3d9060200160405180910390a26111ea8261100d565b5050565b604080518082018252600a81526922b4b3b2b72630bcb2b960b11b60209182015281517f8cad95687ba82c2ce50e74f7b754645e5117c3a5bec8151c0726d5857980a866818301527f71b625cfad44bac63b13dba07f2e1d6084ee04b6f8752101ece6126d584ee6ea81840152466060820152306080808301919091528351808303909101815260a0909101909252815191012090565b603380546001600160a01b038381166001600160a01b0319831681179093556040519116919082907f8be0079c531659141344cd1fd0a4f28419497f9722a3daafe3b4186f6b6457e0905f90a35050565b6033546001600160a01b0316331461076e5760405162461bcd60e51b815260206004820181905260248201527f4f776e61626c653a2063616c6c6572206973206e6f7420746865206f776e65726044820152606401610423565b6001600160a01b0383163b1561144d57604051630b135d3f60e11b808252906001600160a01b03851690631626ba7e906113709086908690600401611c9a565b602060405180830381865afa15801561138b573d5f803e3d5ffd5b505050506040513d601f19601f820116820180604052508101906113af9190611cd6565b6001600160e01b031916146114485760405162461bcd60e51b815260206004820152605360248201527f454950313237315369676e61747572655574696c732e636865636b5369676e6160448201527f747572655f454950313237313a2045524331323731207369676e6174757265206064820152721d995c9a599a58d85d1a5bdb8819985a5b1959606a1b608482015260a401610423565b505050565b826001600160a01b031661146183836114ed565b6001600160a01b0316146114485760405162461bcd60e51b815260206004820152604760248201527f454950313237315369676e61747572655574696c732e636865636b5369676e6160448201527f747572655f454950313237313a207369676e6174757265206e6f742066726f6d6064820152661039b4b3b732b960c91b608482015260a401610423565b5f805f6114fa8585611511565b915091506115078161157c565b5090505b92915050565b5f808251604103611545576020830151604084015160608501515f1a61153987828585611731565b94509450505050611575565b825160400361156e5760208301516040840151611563868383611816565b935093505050611575565b505f905060025b9250929050565b5f81600481111561158f5761158f61193a565b036115975750565b60018160048111156115ab576115ab61193a565b036115f85760405162461bcd60e51b815260206004820152601860248201527f45434453413a20696e76616c6964207369676e617475726500000000000000006044820152606401610423565b600281600481111561160c5761160c61193a565b036116595760405162461bcd60e51b815260206004820152601f60248201527f45434453413a20696e76616c6964207369676e6174757265206c656e677468006044820152606401610423565b600381600481111561166d5761166d61193a565b036116c55760405162461bcd60e51b815260206004820152602260248201527f45434453413a20696e76616c6964207369676e6174757265202773272076616c604482015261756560f01b6064820152608401610423565b60048160048111156116d9576116d961193a565b036104355760405162461bcd60e51b815260206004820152602260248201527f45434453413a20696e76616c6964207369676e6174757265202776272076616c604482015261756560f01b6064820152608401610423565b5f807f7fffffffffffffffffffffffffffffff5d576e7357a4501ddfe92f46681b20a083111561176657505f9050600361180d565b8460ff16601b1415801561177e57508460ff16601c14155b1561178e57505f9050600461180d565b604080515f8082526020820180845289905260ff881692820192909252606081018690526080810185905260019060a0016020604051602081039080840390855afa1580156117df573d5f803e3d5ffd5b5050604051601f1901519150506001600160a01b038116611807575f6001925092505061180d565b91505f90505b94509492505050565b5f806001600160ff1b0383168161183260ff86901c601b611cfd565b905061184087828885611731565b935093505050935093915050565b6001600160a01b0381168114610435575f80fd5b5f60208284031215611872575f80fd5b813561187d8161184e565b9392505050565b5f60208284031215611894575f80fd5b5035919050565b5f805f606084860312156118ad575f80fd5b83356118b88161184e565b925060208401356118c88161184e565b929592945050506040919091013590565b5f80604083850312156118ea575f80fd5b82356118f58161184e565b946020939093013593505050565b5f8060408385031215611914575f80fd5b823561191f8161184e565b9150602083013561192f8161184e565b809150509250929050565b634e487b7160e01b5f52602160045260245ffd5b602081016002831061196e57634e487b7160e01b5f52602160045260245ffd5b91905290565b5f60208284031215611984575f80fd5b813560ff8116811461187d575f80fd5b634e487b7160e01b5f52604160045260245ffd5b6040516060810167ffffffffffffffff811182821017156119cb576119cb611994565b60405290565b604051601f8201601f1916810167ffffffffffffffff811182821017156119fa576119fa611994565b604052919050565b5f8060408385031215611a13575f80fd5b8235611a1e8161184e565b9150602083013567ffffffffffffffff811115611a39575f80fd5b830160608186031215611a4a575f80fd5b611a526119a8565b813567ffffffffffffffff811115611a68575f80fd5b8201601f81018713611a78575f80fd5b803567ffffffffffffffff811115611a9257611a92611994565b611aa5601f8201601f19166020016119d1565b818152886020838501011115611ab9575f80fd5b816020840160208301375f6020928201830152835283810135908301525060409182013591810191909152919491935090915050565b5f805f8060808587031215611b02575f80fd5b8435611b0d8161184e565b93506020850135611b1d8161184e565b93969395505050506040820135916060013590565b5f8060208385031215611b43575f80fd5b823567ffffffffffffffff811115611b59575f80fd5b8301601f81018513611b69575f80fd5b803567ffffffffffffffff811115611b7f575f80fd5b856020828401011115611b90575f80fd5b6020919091019590945092505050565b5f60208284031215611bb0575f80fd5b815161187d8161184e565b6020808252602a908201527f6d73672e73656e646572206973206e6f74207065726d697373696f6e6564206160408201526939903ab73830bab9b2b960b11b606082015260800190565b5f60208284031215611c15575f80fd5b8151801515811461187d575f80fd5b60208082526028908201527f6d73672e73656e646572206973206e6f74207065726d697373696f6e6564206160408201526739903830bab9b2b960c11b606082015260800190565b60208152816020820152818360408301375f818301604090810191909152601f909201601f19160101919050565b828152604060208201525f82518060408401528060208501606085015e5f606082850101526060601f19601f8301168401019150509392505050565b5f60208284031215611ce6575f80fd5b81516001600160e01b03198116811461187d575f80fd5b8082018082111561150b57634e487b7160e01b5f52601160045260245ffdfe4156534469726563746f72792e72656769737465724f70657261746f72546f41a26469706673582212203d8ea65ff418e89788f2fef672be8d7ab6831cf2675d56c0da896a8638d5dc6964736f6c634300081a0033","linkReferences":{}},"methodIdentifiers":{"DOMAIN_TYPEHASH()":"20606b70","OPERATOR_AVS_REGISTRATION_TYPEHASH()":"d79aceab","avsOperatorStatus(address,address)":"49075da3","calculateOperatorAVSRegistrationDigestHash(address,address,bytes32,uint256)":"a1060c88","cancelSalt(bytes32)":"ec76f442","delegation()":"df5cf723","deregisterOperatorFromAVS(address)":"a364f4da","domainSeparator()":"f698da25","initialize(address,address,uint256)":"1794bb3c","operatorSaltIsSpent(address,bytes32)":"374823b5","owner()":"8da5cb5b","pause(uint256)":"136439dd","pauseAll()":"595c6a67","paused()":"5c975abb","paused(uint8)":"5ac86ab7","pauserRegistry()":"886f1195","registerOperatorToAVS(address,(bytes,bytes32,uint256))":"9926ee7d","renounceOwnership()":"715018a6","setPauserRegistry(address)":"10d67a2f","transferOwnership(address)":"f2fde38b","unpause(uint256)":"fabc1cbc","updateAVSMetadataURI(string)":"a98fb355"},"id":0}